:020000040800F2
:10000000082B00200101000851140008ED1300081E
:100010004D140008070200085D18000800000000E9
:100020000000000000000000000000008114000833
:100030000B0200080000000055140008831400089B
:100040001B0100081B0100081B0100081B01000820
:100050001B0100081B0100081B0100081B01000810
:100060001B0100081B0100081B0100081B01000800
:100070001B0100081B0100081B0100081B010008F0
:100080001B0100081B0100081B0100081B010008E0
:100090001B0100081B0100081B0100081B010008D0
:1000A0001B0100081B0100081B0100081B010008C0
:1000B0001B0100081B0100081B0100081B010008B0
:1000C0001B0100081B0100081B0100081B010008A0
:1000D0001B0100084D1800081B0100081B01000847
:1000E0001B0100081B0100081B010008DFF80CD0F1
:1000F00000F048F80048004755290008082B002068
:100100000648804706480047FEE7FEE7FEE7FEE7B1
:10011000FEE7FEE7FEE7FEE7FEE7FEE7ED14000878
:10012000ED000008D2B201E000F8012B491EFBD21D
:1001300070470022F6E710B513460A4604461946F2
:10014000FFF7F0FF204610BD421C10F8011B0029EC
:10015000FBD1801A704730B50B46014600202022A3
:10016000012409E021FA02F59D4205D303FA02F5C4
:10017000491B04FA02F52844151EA2F10102F1DC24
:1001800030BD0000064C074D06E0E06840F001037A
:1001900094E8070098471034AC42F6D3FFF7AAFF63
:1001A000E03100080032000870B58D1810F8014BDE
:1001B00014F0030201D110F8012B231106D110F81D
:1001C000013B03E010F8016B01F8016B521EF9D1FD
:1001D000ABB110F8012B04F00C048A1A0C2C03D0DC
:1001E000A2EB84129B1C08E010F8014BA2EB042246
:1001F000F8E712F8014B01F8014B5B1EF9D5A94253
:10020000D4D3002070BD00BFFEE7704772B600BFB8
:10021000FEE70146002291F82100022808D00420C0
:10022000886300BF002081F8200000BF01207047D4
:100230000868006820F00E000B6818600868006805
:1002400020F001000B68186091F8403001209840C0
:10025000CB6B5860012081F8210000BF002081F89D
:10026000200000BF1046E2E770B50446002594F870
:100270002100022803D00420A063012548E0206863
:10028000006820F00E00216808602068006820F0F7
:100290000100216808601F492068884201D10120BF
:1002A00026E01C4914312068884201D110201FE04B
:1002B000184928312068884201D1801518E0154975
:1002C0003C312068884201D1801411E0114950313D
:1002D0002068884202D14FF4803009E00D49643132
:1002E0002068884202D14FF4801001E04FF0807006
:1002F000084908394860012084F8210000BF002027
:1003000084F8200000BF606B10B12046616B884705
:10031000284670BD0800024070B5044600F0A0F900
:1003200006462546681C10B104480078054400BF05
:1003300000F096F9801BA842FAD370BD0403002098
:100340002DE9F8470346002294466EE14FF001087C
:1003500008FA02F4D1F8008008EA0400A0427DD136
:10036000DFF8DCA2D1F80480A8EB0A09D0453AD026
:1003700014DCB8F1030F50D009DCB8F1000F31D014
:10038000B8F1010F1CD0B8F1020F49D120E0B8F14B
:10039000110F18D0B8F1120F42D11EE0B9F5881F25
:1003A00025D006DCB9F5803F20D0B9F5801F37D1C4
:1003B0001AE0B9F5001F18D0B9F5041F30D117E0C5
:1003C000D1F80CC02DE0D1F80C8008F1040C28E025
:1003D000D1F80C8008F1080C23E0D1F80C8008F16A
:1003E0000C0C1EE000BF00BF00BF00BF00BF00BF7D
:1003F000D1F80880B8F1000F02D14FF0040C0BE0E7
:10040000D1F80880B8F1010F03D14FF0080C1C613E
:1004100002E04FF0080C5C6103E04FF0000C00E0DC
:1004200000BF00BFFF2801D8984601E003F104088F
:100430004646FF2802D84FEA820803E0A2F10808E6
:100440004FEA88084746D6F800804FF00F0909FAAE
:1004500007F928EA09080CFA07F900E088E048EAF9
:100460000908C6F80080D1F8048008F08058B8F177
:10047000805F7DD100BFDFF8CC81D8F8188048F0CC
:100480000108DFF8C091C9F81880C846D8F818806C
:1004900008F00108CDF8008000BF00BF4FEAB9386E
:1004A0004FEA920958F829504FEA82784FEA1879B2
:1004B0004FF00F0808FA09F825EA0805DFF88881E7
:1004C000434502D14FF0000816E0DFF88081434534
:1004D00002D14FF001080FE0DFF87481434502D1EB
:1004E0004FF0020808E0DFF86C81434502D14FF07D
:1004F000030801E04FF004084FEA82794FEA1979C6
:1005000008FA09F848EA0505DFF84C814FEA920934
:1005100048F82950D1F8048008F48038B8F5803FB5
:100520000AD1DFF83881D8F8008048EA0008DFF8FF
:100530002C91C9F8008009E0DFF82081D8F800800C
:1005400028EA0008DFF81491C9F80080D1F8048087
:1005500008F40038B8F5003F10D1DFF8008108F149
:100560000408D8F8008048EA0008DFF8F09000E0BE
:100570005AE009F10409C9F800800DE0DFF8DC80D9
:1005800008F10408D8F8008028EA0008DFF8CC90C9
:1005900009F10409C9F80080D1F8048008F4801832
:1005A000B8F5801F0ED1DFF8B48008F10808D8F83C
:1005B000008048EA0008DFF8A49009F10809C9F8AA
:1005C00000800DE0DFF8948008F10808D8F800807A
:1005D00028EA0008DFF8849009F10809C9F80080CA
:1005E000D1F8048008F40018B8F5001F0ED1DFF828
:1005F0006C8008F10C08D8F8008048EA0008DFF8A1
:100600005C9009F10C09C9F800800DE0DFF84C801E
:1006100008F10C08D8F8008028EA0008DFF83C90C0
:1006200009F10C09C9F80080521CD1F8008028FAA1
:1006300002F8B8F1000F7FF489AEBDE8F88700003A
:10064000000011100010024000080140000C0140A1
:100650000010014000140140080001400004014066
:100660000148006870470000FC0200200348006851
:10067000034909780844014908607047FC020020DA
:100680000403002010B50848006840F01000064937
:100690000860032000F0A8F80F2000F007F800F031
:1006A0002BF8002010BD00000020024070B5044669
:1006B0000E4800784FF47A71B1FBF0F00C490968EC
:1006C000B1FBF0F5284600F00BFC08B1012070BD2D
:1006D000102C07D200222146501E00F047F8054892
:1006E000046001E00120F2E70020F0E704030020AD
:1006F000080300200003002008B500BF11488069EE
:1007000040F001000F4988610846806900F001004F
:10071000009000BF00BF00BF0846C06940F0805095
:10072000C8610846C06900F08050009000BF00BF5B
:1007300000BF0549486820F0E06040F00070486064
:1007400000BF08BD001002400000014001460846FD
:10075000002809DB00F01F0301229A4043099B0097
:1007600003F1E023C3F8002100BF70472DE9F05FDB
:1007700080460D461646002701F082F807463946A6
:100780002A46334601F00700C0F1070ABAF1040F08
:1007900002D94FF0040A01E0C0F1070AD14600F186
:1007A000040ABAF1070F02D24FF0000A01E0A0F1EB
:1007B000030AD4464FF0010A0AFA09FAAAF1010A1B
:1007C0000AEA020A0AFA0CFA4FF0010B0BFA0CFBC8
:1007D000ABF1010B0BEA030B4AEA0B04214640463E
:1007E00001F056F8BDE8F09F00BF00F00702064B8D
:1007F00019684FF6FF031940044B0B4343EA0221EB
:10080000014B196000BF70470CED00E00000FA05D5
:1008100070B504460D460CB9012070BD5A480068F9
:1008200000F00700A8420ED25748006820F00700E9
:100830002843554908600846006800F00700A842B0
:1008400001D00120E9E7207800F0020002281DD144
:10085000207800F00400042805D14C48406840F49A
:10086000E0604A494860207800F00800082805D177
:100870004648406840F460504449486043484068F6
:1008800020F0F000A168084340494860207800F05B
:10089000010078B36068012806D13C48006800F484
:1008A000003090B90120B8E76068022806D13748C7
:1008B000006800F0007040B90120AEE733480068DE
:1008C00000F0020008B90120A7E73048406820F096
:1008D0000300616808432D494860FFF7C1FE0646E2
:1008E00009E0FFF7BDFE801B41F28831884202D942
:1008F000032092E707E02548406800F00C0061689B
:10090000B0EB810FEDD12048006800F00700A8424D
:100910000ED91D48006820F0070028431A490860D6
:100920000846006800F00700A84201D0012074E7E3
:10093000207800F00400042807D11448406820F40F
:10094000E060E168084311494860207800F0080041
:10095000082808D10D48406820F46050216940EA19
:10096000C1000A49486000F03FF808494968C1F3EE
:100970000311074A515CC8400649086006480068F0
:10098000FFF794FE002048E70020024000100240DC
:10099000C631000808030020000300200148006859
:1009A000704700000803002000B5FFF7F7FF044977
:1009B0004968C1F30221034A515CC84000BD0000F0
:1009C00000100240D631000800B5FFF7E7FF0449E8
:1009D0004968C1F3C221034A515CC84000BD000010
:1009E00000100240D6310008F0B585B00FF26C0C53
:1009F0009CE8E01001A8A0E8E0101CA52D68009577
:100A000000210022002300240020194D696801F014
:100A10000C05F5B1042D02D0082D19D101E01548BF
:100A200019E001ADC1F38346AC5D01F4803555B1E9
:100A30000F4D6D68C5F340451DF805200D4D65430C
:100A4000B5FBF2F302E00C4D04FB05F3184602E09F
:100A500000BF084800BF00BF05B0F0BD0203040599
:100A6000060708090A0B0C0D0E0F101001020000FA
:100A70000010024000127A0000093D00F8B504465B
:100A80000CB90120F8BD207800F00100002878D0D2
:100A9000F848406800F00C0004280CD0F548406885
:100AA00000F00C00082811D1F248406800F48030B2
:100AB000B0F5803F0AD1EF48006800F4003000280C
:100AC0005FD0606800285CD10120DBE700BF606870
:100AD000B0F5803F06D1E748006840F48030E54932
:100AE000086028E0606858B9E248006820F4803067
:100AF000E04908600846006820F4802008601AE099
:100B00006068B0F5A02F0BD1DA48006840F480206F
:100B1000D84908600846006840F4803008600AE060
:100B2000D448006820F48030D24908600846006844
:100B300020F48020086000BF606888B1FFF790FD56
:100B4000054606E0FFF78CFD401B642801D9032011
:100B500098E7C848006800F400300028F2D010E0A0
:100B6000FFF77EFD054606E0FFF77AFD401B64288F
:100B700001D9032086E7BF48006800F40030002850
:100B8000F2D1207800F00200022857D1B94840681D
:100B900000F00C0050B1B748406800F00C00082885
:100BA00018D1B448406800F4803098B9B148006862
:100BB00000F0020020B12069012801D0012061E786
:100BC000AC48006820F0F800616940EAC100A9491A
:100BD000086033E02069E8B10120A7490860FFF709
:100BE0003FFD054606E0FFF73BFD401B022801D90B
:100BF000032047E79F48006800F002000028F2D079
:100C00009C48006820F0F800616940EAC1009949F9
:100C1000086013E0002098490860FFF721FD0546B1
:100C200006E0FFF71DFD401B022801D9032029E73C
:100C30009048006800F002000028F2D1207800F00F
:100C4000080008282DD1A069B8B101208B4908609F
:100C5000FFF706FD054606E0FFF702FD401B0228F0
:100C600001D903200EE78348406A00F00200002803
:100C7000F2D0012000F0F0FB13E000207F49086073
:100C8000FFF7EEFC054606E0FFF7EAFC401B0228F2
:100C900001D90320F6E67748406A00F002000028F8
:100CA000F2D1207800F00400042873D100277148A5
:100CB000C06900F0805070B900BF6E48C06940F054
:100CC00080506C49C8610846C06900F080500090AF
:100CD00000BF00BF01276A48006800F48070B0B907
:100CE0006748006840F4807065490860FFF7B8FC09
:100CF000054606E0FFF7B4FC401B642801D9032039
:100D0000C0E65F48006800F480700028F2D000BFA1
:100D1000E068012806D15748006A40F001005549B3
:100D2000086227E0E06858B95248006A20F00100E4
:100D3000504908620846006A20F00400086219E081
:100D4000E06805280BD14B48006A40F0040049498F
:100D500008620846006A40F0010008620AE045485F
:100D6000006A20F00100434908620846006A20F04A
:100D70000400086200BFE068A0B1FFF771FC0546FF
:100D800009E0FFF76DFC401B41F28831884202D92F
:100D9000032077E622E03748006A00F002000028CE
:100DA000EFD012E0FFF75CFC054608E0FFF758FCC7
:100DB000401B41F28831884201D9032062E62D4868
:100DC000006A00F002000028F0D1012F05D1294867
:100DD000C06920F080502749C86100BFE069C8B3EE
:100DE0002448406800F00C00082860D0E069022820
:100DF00048D1002020490866FFF732FC054606E08E
:100E0000FFF72EFC401B022801D903203AE61948BF
:100E1000006800F000700028F2D1206AB0F5803F31
:100E200007D11448406820F40030A16808431149F4
:100E30004860D4E9080108430E49496821F4741157
:100E400008430C49486001200B490866FFF708FC7D
:100E5000054607E03DE0FFF703FC401B022801D9EF
:100E600003200FE60348006800F000700028F2D06D
:100E70002FE0000000100240000042428004424285
:100E800000700040002014490866FFF7E9FB0546A2
:100E900006E0FFF7E5FB401B022801D90320F1E53E
:100EA0000E48006800F000700028F2D111E0E069FF
:100EB000012800D1E6E50948466806F48031206A39
:100EC000814204D106F47011606A814201D0012090
:100ED000D8E50020D6E500000000424200100240A4
:100EE00070B504462546681EB0F1807F01D301200D
:100EF0000FE0681E4FF0E02148610F214FF0FF30F6
:100F000000F0C6FC00204FF0E02188610720086156
:100F1000002070BD704770472DE9F84F04462068E7
:100F200005682068C668206847694FF00009CA460E
:100F300005F00F09B9F1000F0AD105F0200038B112
:100F400006F0200020B1204600F006FBBDE8F88F37
:100F5000B9F1000F71D007F0010018B906F49070D4
:100F600000286AD005F0010030B106F4807018B195
:100F7000206C40F00100206405F0040030B107F05F
:100F8000010018B1206C40F00200206405F002005E
:100F900030B107F0010018B1206C40F0040020646B
:100FA00005F0080048B106F0200010B907F0010074
:100FB00018B1206C40F008002064206C68B305F084
:100FC000200028B106F0200010B1204600F0C4FA3D
:100FD00020684069C0F3801A206C00F0080010B946
:100FE000BAF1000F22D0204600F08BFA2068406949
:100FF00000F04000B0B12068406920F04000216856
:101000004861A06B50B15648A16B4863A06BFFF7D5
:101010002BF910B1A06B416B88470CE02046FFF71D
:101020007AFF08E02046FFF776FF04E02046FFF74E
:1010300072FF0020206489E7FFE7206B012878D148
:1010400005F01000002874D006F01000002870D0C1
:1010500000BF002000902068006800902068406871
:10106000009000BF00BF2068406900F04000C0B39E
:10107000A06B006840681FFA80F8B8F1000F2FD00D
:10108000A08D40452CDDA4F82E80A06B806920281F
:101090001FD02068C06820F480702168C860206874
:1010A000406920F00100216848612068406920F013
:1010B000400021684861202084F83E000020206321
:1010C0002068C06820F010002168C860A06BFFF79E
:1010D000A0F8A08DE28D801A81B22046FFF71AFF9A
:1010E00034E7FFE7A08DE18D401A1FFA80F8E08D0C
:1010F000E8B1B8F1000F1AD02068C06820F49070F1
:101100002168C8602068406920F0010021684861BA
:10111000202084F83E00002020632068C06820F072
:1011200010002168C86041462046FFF7F3FE0DE736
:10113000FFE705F0800030B106F0800018B12046CE
:1011400000F01DFB02E705F0400030B106F0400062
:1011500018B1204600F0F0F9F8E600BFF6E600000E
:10116000EF14000810B504460CB9012010BDA069A9
:1011700000B100E000BF94F83D0028B9002084F8D9
:101180003C00204600F028F8242084F83D00206828
:10119000C06820F400502168C860204600F04EFA74
:1011A0002068006920F49040216808612068406947
:1011B00020F02A00216848612068C06840F400508F
:1011C0002168C86000202064202084F83D0084F855
:1011D0003E000020CAE7000010B586B0044600209B
:1011E00002900390049005901E492068884236D1F1
:1011F00000BF1D48806940F480401B498861084653
:10120000806900F48040019000BF00BF00BF084625
:10121000806940F0040088610846806900F004009D
:10122000019000BF00BF48150290022003900320E8
:10123000059002A90D48FFF783F84FF480600290F3
:1012400000200390049002A90848FFF779F80022D3
:1012500011462520FFF78AFA2520FFF777FA06B016
:1012600010BD00000038014000100240000801409D
:1012700070B504460D46164694F83E00202816D157
:1012800005B10EB9012070BD00BF94F83C000128E3
:1012900001D10220F7E7012084F83C0000BF0020C4
:1012A000206332462946204600F046FAEBE702204A
:1012B000E9E7000010B5044612480078B8B10122F1
:1012C00010491148FFF7D4FF0E4800780F49104A23
:1012D000126888540E480068401C0D490860084692
:1012E0000068B0F5806F0CD30020086009E0002092
:1012F0000649074A126888540549086001200549D3
:10130000087010BDF5020020C4260020C41E002075
:10131000F8020020F60200202DE9F84F04460E46A0
:10132000174699464FF0000A94F83D0020285AD1FC
:1013300006B117B90120BDE8F88F00BF94F83C0052
:10134000012801D10220F6E7012084F83C0000BF0B
:1013500000202064212084F83D00FFF781F98246B7
:10136000A784E784A068B0F5805F04D1206910B934
:101370000025B04602E035464FF0000800BF0020CF
:1013800084F83C0000BF1BE0534600228021204629
:10139000CDF8009000F023FA08B10320CBE745B95F
:1013A000B8F80000C0F308002168486008F102089E
:1013B00003E02878216848606D1CE08C401EE084C2
:1013C000E08C0028E0D15346002240212046CDF891
:1013D000009000F004FA08B10320ACE7202084F864
:1013E0003D000020A7E70220A5E7704700BFFEE709
:1013F00008B500BF0648806940F0040004498861D0
:101400000846806900F00400009000BF00BF08BDDE
:101410000010024010B50B480B4908604FF4E13052
:101420004860002108488160C16001610C21416170
:1014300000218161C161FFF795FE08B1FEF7E6FE6C
:1014400010BD000000380140C426002000BFFEE7A8
:1014500000BFFEE77047000008B508490968C908E1
:101460004FF47A72B1FBF2F14143009100BF00BF2B
:1014700000994A1E00920029F9D108BD08030020F6
:10148000704710B5FFF7F2F810BD00B58FB02821F6
:1014900005A8FEF74EFE14216846FEF74AFE02201C
:1014A00005900120099010200A9002200C90002144
:1014B0000D914FF460110E9105A8FFF7DFFA08B106
:1014C000FEF7A4FE0F200090022001900020029061
:1014D0004FF4806003900020049002216846FFF7DB
:1014E00097F908B1FEF792FE0FB000BD704770B5D6
:1014F00005466C6A0020E085E0842046FFF70BFD7E
:1015000070BD0168C96821F490710268D1600168FA
:10151000496921F0010102685161016B012905D17E
:101520000168C96821F010010268D160202180F8AB
:101530003E1000210163704710B504462068C06862
:1015400020F040002168C860202084F83D0020463B
:10155000FFF74BFF002010BDF8B5044694F83E009D
:10156000222869D1A068B0F5805F0CD1206950B9FC
:101570000025A66A20684068C0F308003080A06A91
:10158000801CA06215E0A56A0026A068B0F5805F07
:1015900003D0A06828B9206918B92068406828706D
:1015A00004E02068406800F07F002870A06A401CBA
:1015B000A062E08D401E80B2E085A8BB2068C068B4
:1015C00020F020002168C8602068C06820F4807086
:1015D0002168C8602068406920F0010021684861E6
:1015E000202084F83E00206B01281ED100202063BB
:1015F0002068C06820F010002168C860206800687A
:1016000000F0100010280AD100BF002000902068D0
:101610000068009020684068009000BF00BFA18D66
:101620002046FFF777FC03E004E02046FFF742FE88
:101630000020F8BD0020FCE70220FAE770B5044660
:101640002168096921F44051E2681143226811615F
:101650002269A1681143626941EA02052168C968EB
:1016600041F20C62914329432268D16021684969A3
:1016700021F44071A2691143226851612D4A216809
:10168000914202D1FFF7A0F901E0FFF78DF900EBDD
:10169000C00101EB001162689200B1FBF2F100EBB6
:1016A000C00202EB001263689B00B2FBF3F26423FA
:1016B000B2FBF3F202EBC20303EB0212A1EB8201D5
:1016C000322202EB01116422B1FBF2F101F0F001D0
:1016D00000EBC00202EB001263689B00B2FBF3F266
:1016E0006423B2FBF3F201EB021200EBC00101EB49
:1016F000001163689B00B1FBF3F100EBC00303EB47
:1017000000136668B600B3FBF6F36426B3FBF6F38A
:1017100003EBC30606EB0313A1EB8301322303EBB8
:1017200001116423B1FBF3F101F00F0111442268B0
:10173000916070BD0038014010B5034699629A85EA
:10174000DA8500201864222083F83E0000BF0020C4
:1017500083F83C0000BF1868C06840F480701C68C3
:10176000E0601868406940F001001C68606118681A
:10177000C06840F020001C68E060002010BD0146F9
:1017800091F83D00212828D18868B0F5805F0BD101
:10179000086948B90A6A1088C0F308000B685860E5
:1017A000086A801C086205E00B6A581C08621878F9
:1017B0000B685860C88C401E80B2C88458B908684D
:1017C000C06820F080000B68D8600868C06840F0EE
:1017D00040000B68D860002070470220FCE72DE92C
:1017E000F04104460D4617469846069E21E0701CBF
:1017F000F8B12EB1FEF734FFA0EB0800B04218D9C3
:101800002068C06820F4D0702168C86020684069F2
:1018100020F0010021684861202084F83D0084F810
:101820003E0000BF002084F83C0000BF0320BDE85C
:10183000F081206800682840A84201D1012000E022
:101840000020B842D3D00020F1E7000010B50248D4
:10185000FFF762FB10BD0000C426002000BFFEE7BA
:101860000FB4054B10B503A9044A029800F034F8F0
:1018700010BC5DF814FB0000B52300080C03002029
:1018800002480068C0F30220704700000CED00E041
:1018900010B5002804DB0A07130E054A135406E0AE
:1018A0000A07140E034A00F00F031B1FD45410BD87
:1018B00000E400E018ED00E002E008C8121F08C1D3
:1018C000002AFAD170477047002001E001C1121FC1
:1018D000002AFBD1704700002DE9FF4F8BB09A46DC
:1018E0000F460546002606E025280BD052460D99E6
:1018F00090476D1C761C28780028F5D10FB0304633
:10190000BDE8F08F0024A0460122604900E00443B6
:1019100015F8013F203B02FA03F00842F7D128787E
:101920002E2817D115F8010F44F004042A280ED0F0
:101930006FF02F022878A0F1300109290AD808EBAE
:10194000880102EB410100EB01086D1CF2E757F83A
:10195000048B6D1C287869283ED006DC0028CDD089
:1019600063280BD0642804D136E0732810D0752882
:101970004BD052460D999047761C85E017F8040B22
:101980008DF8000000208DF80100E946012003E0F9
:1019900057F8049B4FF0FF3061074FF0000401D46B
:1019A0000AE0641C44450DDA8442FADB19F804109D
:1019B0000029F6D106E0641C8442FCDB19F804100F
:1019C0000029F8D1264404E019F8010B52460D997C
:1019D0009047641EF8D257E001CF4FF00A0B002861
:1019E00002DA40422D2102E0210504D52B218DF899
:1019F0002410012103E0E10705D02021F7E70DF1D4
:101A0000200908910CE00021F9E701CF4FF00A0B03
:101A1000F9E75946FEF79FFB01F1300209F8012D65
:101A20000028F6D1ADEB090000F1200B600701D4CE
:101A30004FF00108D84502DDA8EB0B0000E00020C4
:101A40008046002406E009A85246005D0D999047A3
:101A5000641C761C08988442F5DB04E03020524672
:101A60000D999047761CB8F10001A8F10108F5DC4A
:101A700005E019F8010B52460D999047761CBBF111
:101A80000001ABF1010BF4DC6D1C34E70928010007
:101A90002DE9F04F8FB00646884692460024A346B3
:101AA00029E1D6F8A00FA04200D825E106EBC4003A
:101AB000057956F834900027BD4201D1641C1AE123
:101AC0000227BD422FD12AE0641C06EBC400057931
:101AD00056F83490A1200D900D98854204D14946C6
:101AE00087A0FFF7BDFE1AE0A0200D90A02D07D122
:101AF00008F5E16050F8291081A0FFF7B1FE0EE073
:101B0000A2200D900D98854204D149467DA0FFF793
:101B1000A7FE04E00027BD4200D101E000BFD3E7EB
:101B200000BF641CE7E0A0200D900D98854220D1F5
:101B3000A11C304600F030FC0290A21C3146404609
:101B4000029B00F0D9F9019050200E90601C06EB2A
:101B5000C00041680E98814203D021466AA0FFF779
:101B60007FFE08F5E161019841F829000298441CC4
:101B7000C1E00527BD4213D1611C304600F00CFCCA
:101B80000290621C31464046029B00F0B5F901907C
:101B90000198012802D10298441C00E04C46AAE0BA
:101BA0000627BD4201D14C46A5E00327BD4213D113
:101BB000611C304600F0F0FB0290621C314640464A
:101BC000029B00F099F901900198012802D1029836
:101BD000441C00E04C468EE00927BD4201D14C4632
:101BE00089E00A27BD4207D1A01C03A941F82B00B8
:101BF0000BF1010B4C467EE00B27BD4205D1ABF14A
:101C0000010B03A850F82B4075E00C27BD4238D1DA
:101C1000A41C56F83400029006EBC4000579A020FD
:101C20000D90A02D05D108F5E160029950F8210032
:101C300002900298C82802D33BA0FFF711FE029839
:101C40005AF820000190641E56F83400009006EB0C
:101C5000C4000579A0200D90A02D07D108F5E16101
:101C6000DDE9002041F82200A41C44E0A1200D90F1
:101C7000A12D05D1DDE900104AF82100A41C3AE0AD
:101C800000BF0D27BD4234D1A41C56F8340001908A
:101C900006EBC4000579A0200D90A02D05D108F514
:101CA000E160019950F821000190641E56F834005B
:101CB000009006EBC4000579A0200D90A02D06D160
:101CC00008F5E160009950F821000290A41CA120C1
:101CD0000D90A12D02D100980290A41C0298C82852
:101CE00002D311A0FFF7BCFDDDE901104AF8201076
:101CF00000BF641C00BFD4E600BF0FB0BDE8F08F8A
:101D000025642000256300000A696E6465783A2521
:101D100064206572723A2073686F756C6420626526
:101D200020223D22200A00006D656D2072656164ED
:101D3000206F7574206F662072616E67650A0000FF
:101D400070B504460E46154628A0FFF789FD0F2CF6
:101D500041D2DFE804F040080C1014181C2024289D
:101D60002C3034383C0022A0FFF77AFD33E025A068
:101D7000FFF776FD2FE027A0FFF772FD2BE029A0EB
:101D8000FFF76EFD27E02BA0FFF76AFD23E02EA0F2
:101D9000FFF766FD1FE031A0FFF762FD1BE034A0F6
:101DA000FFF75EFD17E037A0FFF75AFD13E03AA0FA
:101DB000FFF756FD0FE03DA0FFF752FD0BE042A0FC
:101DC000FFF74EFD07E043A0FFF74AFD03E045A003
:101DD000FFF746FD00BF00BF46A0FFF741FD691EAB
:101DE000304600F0D9FF284670BD00000A00000010
:101DF0006C697374206F7574206F6620696E6465FA
:101E0000780A00006E756D20746F6F206269670A32
:101E1000000000006E616D6520746F6F206C6F6E46
:101E2000670A0000746F6F206D616E7920766172B1
:101E3000730A0000756E7265636F676E697A656418
:101E4000207661720A000000756E7265636F676EBE
:101E5000697A656420776F72640A000063616E2797
:101E6000742066696E6420656E6469660A0000000D
:101E700063616E27742066696E6420656E6477689E
:101E80000A00000063616E27742066696E64207723
:101E900068696C650A00000066756E63206E616D8E
:101EA0006520746F6F206269670A000066756E6353
:101EB000206E616D652073686F756C6420626520AB
:101EC0006E756D0A000000006E6F20202066756E32
:101ED000630A000073686F756C6420626520223DA0
:101EE000220A000066756E63206E6F207265742290
:101EF0003D220A00617420002DE9FF4FD9B08A46C7
:101F000000205390282054904FF000095B9FA3E0DD
:101F10000AEBC700067955205890589886420DD193
:101F200009F1050000F0FF09B9F1780F05DD3B4626
:101F300000225046599900F05BF98CE056205890E9
:101F4000589886420DD1A9F1050000F0FF09B9F1BA
:101F5000000F05DA3B4601225046599900F048F936
:101F600079E057205890582057905920569058980B
:101F7000864201D1012100E000215798864201D11B
:101F8000012000E00020084356998E4201D1012132
:101F900000E00021084330B109F10102314603A8F5
:101FA00000F0A2F957E051205890522057905898CD
:101FB000864201D1012000E0002057998E4201D1D4
:101FC000012100E00021084330B109F1020231464D
:101FD00003A800F089F93EE0532058905420579010
:101FE0005898864201D1012000E0002057998E4286
:101FF00001D1012100E00021084330B109F10302C1
:10200000314603A800F070F925E0A12055905598BD
:10201000B04207D15AF837800022414603A800F0A9
:1020200063F918E0A02055905598B0420CD15AF8A9
:102030003780599800F5E16050F828B000225946E1
:1020400003A800F051F906E03B4602225046599998
:1020500000F0CEF800BF7F1C5C988742FFF458AFB9
:102060000020029000BF0CE003A901EBC0014A6808
:1020700002998A4204D903A901EBC00109790291AE
:10208000401C53998142EFD800200190A6E0002621
:102090009FE0002600200BE003A901EBC0014B6884
:1020A000DDE90121891A8B4200D104E0761C401C35
:1020B00053998142F0D800BF5398B04200D189E0D3
:1020C0003EB90027334603225046599900F090F854
:1020D00003E0701E03A951F830705398401EB042BF
:1020E00008D14FF00008334603225046599900F0BA
:1020F0007FF803E003A9701C51F8308003A810F8A2
:1021000036B0BBF1530F03D107FB08F4E51734E0F9
:10211000BBF1540F03D197FBF8F4E5172DE0BBF1A9
:10212000510F03D107EB0804E51726E0BBF1520F6E
:1021300003D1A7EB0804E5171FE0BBF1570F07D148
:10214000474501DD012000E000200446C51714E0EA
:10215000BBF1580F07D1474501DA012000E000200C
:102160000446C51709E0BBF1590F06D1474501D117
:10217000012000E000200446C5176FF00041002058
:10218000091BA84101DA012000E000204FF00042C5
:10219000A21A75F1FF3101DA012100E000210843A4
:1021A00028B1334604225046599900F021F8711E97
:1021B00003A800F0C1F8711E03A800F0BDF8701E5E
:1021C00003A941F83040002103AA02EBC00041609E
:1021D00000BF5EE700BF0198401C0190DDE90101EE
:1021E0008842FFF454AF03985DB0BDE8F08F000063
:1021F0002DE9F0470546894616461C461DA0FFF707
:102200002FFB052E18D2DFE806F003070B0F130093
:102210001BA0FFF725FB0FE01DA0FFF721FB0BE044
:1022200022A0FFF71DFB07E025A0FFF719FB03E045
:1022300027A0FFF715FB00BF00BF29A0FFF710FB89
:10224000E01E002801DD804601E04FF00008201D5F
:10225000D5F8A01F814201D9271D01E0D5F8A07F44
:102260003B4642464946284600F0C4FD0120BDE8F1
:10227000F087000065787072206572723A0A00007B
:10228000746F6F206D616E79202228220A00000091
:1022900022292220616E642022282220646F6E276A
:1022A00074206D617463680A00000000756E7265C9
:1022B000636F676E697A6564206F700A00000000C2
:1022C0006F70206E6F20636F6E73740A00000000E1
:1022D00076616C756520746F6F206269670A000013
:1022E00061743A0A0000000070B504460E461546B7
:1022F000D4F8400144F83060D4F8400104EBC00049
:102300004560D4F84001401CC4F8400104F5A070B9
:1023100003C8884205D34FF0FF3202A10120FFF726
:102320000FFD70BD6C6973745F617070656E645F82
:102330006F75745F6D656D0070B504460D46D4F819
:10234000400128B94FF0FF320EA10120FFF7F8FC41
:1023500028460CE0411C54F8311044F83010411C60
:1023600004EBC101496804EBC0025160401C411CF0
:10237000D4F840218A42EDD8D4F84001401EC4F878
:10238000400170BD6C6973745F706F705F6F7574BE
:102390005F6D656D0000000010B50246084600BF85
:1023A000002302EBC00464689C4200D110BD401CB5
:1023B000F6E7000013B50C464FF6FF73012269469D
:1023C0000248FEF7A9FF00981CBD0000C4260020AB
:1023D0002DE9F04105460E46144600BF2068401C1A
:1023E00020602068285C2028F8D0002700BF2068E3
:1023F000285CD6F8E818C1EB01113144C8552068B3
:102400002A5C295C20A0FFF72BFA2068401C206082
:10241000781CC7B20E2F04DB294603202268FFF781
:102420008FFC2068285C202801D0012000E00020DB
:102430002168695C0D2901D0012100E000210840DC
:102440002168695C0A2901D0012100E000210840CF
:102450000028CCD1D6F8E818C1EB01113144C85599
:102460002068401C2060D6F8E808401CC6F8E80840
:10247000D6F8E808782804D3294604202268FFF714
:102480005FFCBDE8F08100002020202020202020DB
:10249000202020202020202025645F2563000000CC
:1024A0002DE9F84F82460C4600260025A84644E157
:1024B000032704EBC6004068B84241D135463DE0F1
:1024C0006D1C032704EBC5004068B84203D108F136
:1024D000010000F0FF080427D4F8A00FA84206D896
:1024E000324651460720FFF72BFCBDE8F88F04EB7E
:1024F000C5004068B84201D1012000E00020B8F1D9
:10250000000F01D1012100E00021084010B144F882
:10251000365014E004EBC5004068B84201D10120F8
:1025200000E00020B8F1000F01D0012100E00021FF
:10253000084018B1A8F1010000F0FF08C0E700BF93
:10254000052704EBC6004068B84241D135463DE05E
:102550006D1C052704EBC5004068B84203D108F1A3
:10256000010000F0FF080627D4F8A00FA84205D804
:10257000324651460820FFF7E3FBB6E704EBC500FF
:102580004068B84201D1012000E00020B8F1000FFE
:1025900001D1012100E00021084018B1681C44F875
:1025A000360014E004EBC5004068B84201D10120B8
:1025B00000E00020B8F1000F01D0012100E000216F
:1025C000084018B1A8F1010000F0FF08C0E700BF03
:1025D000062704EBC6004068B84241D135463DE0CD
:1025E0006D1E062704EBC5004068B84203D108F110
:1025F000010000F0FF080527D4F8A00FA84205D875
:10260000324651460920FFF79BFB6EE704EBC500FD
:102610004068B84201D1012000E00020B8F1000F6D
:1026200001D1012100E00021084018B1681E44F8E2
:10263000360014E004EBC5004068B84201D1012027
:1026400000E00020B8F1000F01D0012100E00021DE
:10265000084018B1A8F1010000F0FF08C0E700BF72
:102660000A2704EBC6004068B84241D1701C54F8F8
:102670003000009009274FF0000900BF04EBC900AB
:102680004068B84225D109F101094FF0A10B04EBD4
:10269000C9004068584501D1012000E0002054F8ED
:1026A000392000998A4201D1012100E0002108402F
:1026B00020B109F1010044F8360017E004EBC9002D
:1026C0004068584504D0324651460B20FFF738FB8E
:1026D00000BFD4F8A00F484505D8324651460C201B
:1026E000FFF72EFB02E009F10109C7E700BF00BFB9
:1026F000092704EBC6004068B84218D1354614E0FB
:102700006D1C0B27D4F8A00FA84205D832465146BD
:102710000D20FFF715FBE8E604EBC5004068B84262
:1027200003D1681C44F8360000E0E9E700BF761CDE
:10273000D4F8A00FB04200D800E0B9E600BF00BF57
:10274000D3E6000070B505460C4654A22846216821
:1027500000F0DEFC20B12068401C2060002070BD2D
:102760004FA22846216800F0D3FC20B12068401C0D
:1027700020600120F3E74BA22846216800F0C8FC46
:1027800020B12068C01C20600220E8E746A228464D
:10279000216800F0BDFC20B12068801C206003206F
:1027A000DDE742A22846216800F0B2FC20B1206893
:1027B000401D20600420D2E73EA22846216800F098
:1027C000A7FC20B12068401D20600520C7E73BA280
:1027D0002846216800F09CFC20B12068401D206044
:1027E0000620BCE737A22846216800F091FC20B102
:1027F0002068401C20600720B1E733A228462168EA
:1028000000F086FC20B12068401C20600720A6E76D
:102810002EA22846216800F07BFC20B12068C01C55
:10282000206008209BE72AA22846216800F070FC5F
:1028300020B12068001D2060092090E726A22846CC
:10284000216800F065FC20B12068001D20600A208E
:1028500085E723A22846216800F05AFC20B12068B1
:10286000001D20600B207AE71EA22846216800F098
:102870004FFC20B12068001D20600C206FE71BA2D8
:102880002846216800F044FC20B12068401D2060EB
:102890000D2064E74FF0FF3061E700000A00000000
:1028A0002C0000007072690069660000656E646942
:1028B000660000007768696C65000000656E6477EB
:1028C000680000002000000009000000766172002E
:1028D00066756E630000000063616C6C00000000B0
:1028E000726574007265616400000000777269743B
:1028F0006500000070B504460E461546D4F8A00FDA
:1029000044F83060D4F8A00F04EBC0004560D4F860
:10291000A00F401CC4F8A00F04F57A6003C88842D9
:1029200005D34FF0FF3202A10120FFF709FA70BD75
:102930006C6973745F617070656E645F6F75745FEE
:102940006D656D000021C0F8A01F4FF4FA71C0F84A
:10295000A41F7047FDF796FE0020394908703949D9
:10296000087039490860FEF790FDFEF741FDFEF75B
:1029700051FDFEF73DFDFEF74DFD3448FEF72CFC02
:1029800001222F493148FEF773FC4FF4FA70FDF72E
:10299000C3FC02240225002616E00126022506E0DB
:1029A00094FBF5F06843A04200D100266D1C04EBB7
:1029B000D471012202EB6101A942F1DC1EB1214672
:1029C00023A0FEF74DFF641C642CE6DB36E04FF4D9
:1029D000FA70FDF7A1FC1FA0FEF742FF194800782E
:1029E00001282BD10020174908701D491DA0FEF7B2
:1029F00037FF1B48FDF7A8FB074639461AA0FEF72C
:102A00002FFF1D4A1D49164800F072F91B49144852
:102A1000FFF746FD194800221749D0F8A03F00F003
:102A2000E9F917A0FEF71CFF1B4A13491348FFF7EB
:102A30002FF8012202490548FEF71AFCC7E70000FB
:102A4000F5020020F6020020F8020020C426002033
:102A50002564200048454C4C4F570D0A00000000EB
:102A6000C41E002025730A00636F64655F6C656E89
:102A70003A2025640A000000B8120020100300204C
:102A80000A2D2D2D2D2D42415349432052554E2DB7
:102A90002D2D2D2D0A000000A41B00202DE9F0474C
:102AA00005460C46914698462068285C302801DB94
:102AB000012000E000202168695C392901DC012146
:102AC00000E000210840002852D02068285C3038FF
:102AD000C71706462068401C206018E00A224FF005
:102AE000000C3046A0FB021A07FB02A206FB0C23D7
:102AF0002068285C62468C4619461CEB0003514155
:102B000030229E1A61F100072068401C2060206876
:102B1000285C302801DB012000E000202168695C8E
:102B2000392901DC012100E0002108400028D5D12D
:102B30006FF00041891BB84101DA012000E000205C
:102B40004FF00042B21A77F1FF3101DA012100E0C3
:102B50000021084320B1294602202268FFF7F0F83F
:102B6000A12231464846FFF7C5FEA120BDE8F08707
:102B70002068285C222815D12068401C206008E0CD
:102B80002068295CA2224846FFF7B4FE2068401C5A
:102B900020602068285C2228F2D12068401C206038
:102BA000A220E3E722464146284600F0CEFA064638
:102BB000002E10DBC6EB061101EB0800FDF7C4FA8E
:102BC000401C216808442060A02231464846FFF797
:102BD00091FEA020CAE700BF4FF0FF30C6E700001B
:102BE00070B505460C4638A22846216800F090FAD8
:102BF00020B12068801C2060592070BD33A2284677
:102C0000216800F085FA20B12068401C2060502027
:102C1000F3E72FA22846216800F07AFA20B1206855
:102C2000401C20605120E8E72AA22846216800F0D5
:102C30006FFA20B12068401C20605220DDE726A2F8
:102C40002846216800F064FA20B12068401C20600A
:102C50005320D2E721A22846216800F059FA20B17A
:102C60002068401C20605420C7E71DA22846216828
:102C700000F04EFA20B12068401C20605520BCE7CF
:102C800018A22846216800F043FA20B12068401CB1
:102C900020605620B1E714A22846216800F038FAD7
:102CA00020B12068401C20605720A6E70FA22846CC
:102CB000216800F02DFA20B12068401C20605820C7
:102CC0009BE74FF0FF3098E73D3D00003D000000DE
:102CD0002B0000002D0000002A0000002F00000043
:102CE00028000000290000003E0000003C00000019
:102CF0002DE9F84F81460F4616464846FDF724FA5F
:102D000082460020009083463846FFF71BFE0020D5
:102D1000C6F8E8083CE069464846FFF713FD04465C
:102D2000002C10DB072C00D132E0082C05D16A46BC
:102D300031464846FFF74CFB2AE0224621463846FA
:102D4000FFF7D8FD24E069464846FFF749FF0546EE
:102D5000002D05DD2A4629463846FFF7CBFD17E052
:102D600033463A4669464846FFF798FE8046B8F132
:102D7000000F00DD0CE00098401C009000985045CA
:102D800000D306E049460620009AFEF7D9FF00BFAF
:102D9000C1E700BFBDE8F88F70B506460D460024B8
:102DA00029460EA0FEF75CFD0FA0FEF759FD00BFFF
:102DB0000DE03046FDF7C8F92919884200D808E02F
:102DC0002819315C0AA0FEF74BFD601CC4B20F2C21
:102DD000EFDB00BF05A0FEF743FD70BD696E6465C3
:102DE000783A2025750A00007374723A0A000000D0
:102DF000256300002DE9F0470746884691469A462C
:102E00004D46CAE057F8356007EBC50044682946CF
:102E100064A0FEF725FD1CB965A0FEF721FD60E06A
:102E2000012C03D165A0FEF71BFD5AE0022C03D153
:102E300065A0FEF715FD54E0032C07D1314665A0CF
:102E4000FEF70EFD64A0FEF70BFD4AE0042C03D153
:102E500063A0FEF705FD44E0052C07D131465DA0D7
:102E6000FEF7FEFC62A0FEF7FBFC3AE0062C07D161
:102E7000314658A0FEF7F4FC60A0FEF7F1FC30E00C
:102E8000072C03D160A0FEF7EBFC2AE0082C03D14D
:102E900061A0FEF7E5FC24E0092C07D131464DA0E6
:102EA000FEF7DEFC5FA0FEF7DBFC1AE00A2C07D180
:102EB000314648A0FEF7D4FC5DA0FEF7D1FC10E03F
:102EC0000B2C03D15DA0FEF7CBFC0AE00C2C03D148
:102ED0005DA0FEF7C5FC04E00D2C02D15DA0FEF75D
:102EE000BFFC502C03D15FA0FEF7BAFC34E0512C9C
:102EF00003D15FA0FEF7B4FC2EE0522C03D15FA0FB
:102F0000FEF7AEFC28E0532C03D15FA0FEF7A8FC2F
:102F100022E0542C03D15FA0FEF7A2FC1CE0552C4C
:102F200003D15FA0FEF79CFC16E0562C03D15FA0F6
:102F3000FEF796FC10E0572C03D15FA0FEF790FC43
:102F40000AE0582C03D15FA0FEF78AFC04E0582C5D
:102F500002D15FA0FEF784FCA02C0AD1C6EB0610BC
:102F600000EB08015DA0FEF77BFC5EA0FEF778FC9D
:102F700012E0A12C07D131465DA0FEF771FC5EA0E6
:102F8000FEF76EFC08E0A22C06D1F1B25CA0FEF7C1
:102F900067FC5DA0FEF764FC6D1C5545FFF432AF85
:102FA000BDE8F087696E6465783D257520200000D6
:102FB0004E4C202020204E4C0A0000002C202020C7
:102FC00020202C0A000000007072692020207072FE
:102FD000690A0000256400002020202069660A009C
:102FE000656E64696620656E6469660A00000000AB
:102FF00020202020207768696C650A00202020208E
:1030000020656E6477680A00737061636520737071
:103010006163650A000000007661722020207661FD
:10302000720A000020202066756E630A000000000E
:103030002020202063616C6C0A00000072657420FF
:1030400020207265740A0000726561642020726538
:1030500061640A0077726974652077726974650A21
:10306000000000003D20202020203D0A000000003C
:103070002B20202020202B0A000000002D202020C3
:1030800020202D0A000000002A20202020202A0ACB
:10309000000000002F20202020202F0A0000000028
:1030A000282020202020280A00000000292020209D
:1030B0002020290A000000003E20202020203E0A77
:1030C000000000003C20202020203C0A00000000DE
:1030D0003D3D2020203D3D0A0000000025732020BA
:1030E000200000007661725F6E616D650A0000006D
:1030F0002575202020000000636F6E73740A0000A5
:103100002563202020000000636861720A0000002F
:103110002DE9F04106460C46154601272846FDF7E5
:1031200013F800F0FF08204607E0315C021BAA5CA0
:10313000914201D0002704E0401C08EB04018142C9
:10314000F3D800BF3846BDE8F0812DE9F04186B0E4
:1031500007468846154600243846FCF7F5FF2968DF
:10316000884203D8601E06B0BDE8F0810DE02868F3
:103170002044385C01A90855601CC4B2142C04DB3F
:10318000394603202A68FEF7DBFD28682044385CB6
:103190002028ECD1002001A90855002612E0D8F81B
:1031A000E808B04202D84FF0FF30DCE7C6EB06106B
:1031B00000EB0802002101A8FFF7AAFF08B1304682
:1031C000D1E7761CEBE700000000000000000102E0
:1031D00003040607080900000000010203040000C0
:1031E000003200080000002010030000A8010008C1
:1031F0007033000810030020F8270000C8180008EA
:1032000030207072692022657870725F7465737403
:103210003A220A76617220690A69203D20393233E8
:103220003009300732203C20312014100469202A54
:1032300004510B122B1A10042A20281C122B0612E0
:10324000331010043420292112351A1231081004C9
:1032500031202D3C211C32340A42292E1230171203
:10326000390D23290A7D32690622227E10055F6509
:103270006E64823110636966911369666B10063E55
:1032800020320A200131AF1006626967220A2C1130
:103290001A411EA23C1E3006736D616C222D311C3A
:1032A000310A711D4009696E6E65725F6966215150
:1032B00044D11E315A716101139E64067768696CAE
:1032C0006532310D4186C2208751884121623173B8
:1032D000031277687333776873211D6151A23E51E1
:1032E00051CA457A262D90512E31F51122466DBCDA
:1032F000376220C34004646976093408666C6167EC
:10330000200A62C7220A163109311660043D2030B6
:103310006D2662E343303064511D42310E713481B9
:10332000CB2113123C34362FDF86316415723228DC
:10333000182122290B3171223D956123817A611276
:1033400095868170216306102B3415D341D1651702
:10335000515A95CA21EB426297E5222961A00422C5
:103360000A00011210042201093324F4180000009D
:04000005080000ED02
:00000001FF
