:03000000023AC8F9
:0C3AC800787FE4F6D8FD758121023B0FE9
:101C82006C6973745F617070656E645F6F75745FA9
:101C92006D656D006C6973745F706F705F6F7574E2
:101CA2005F6D656D000A005B25752C2025755D0A48
:101CB200000D0A002C0070726900696600656E648E
:101CC2006966007768696C6500656E6477680020F4
:101CD2000009007661720066756E630063616C6C68
:101CE20000726574007265616400777269746500E0
:101CF2003D3D003D002B002D002A002F0028002929
:101D0200003E003C002020202020202020202020F7
:101D1200202020202025645F2563007661725F6E9B
:101D2200616D653A25730A00696E6465783A20250B
:101D3200750A007374723A0A00256300696E64655D
:101D4200783D25752020004E4C202020204E4C0A44
:101D5200002C20202020202C0A00707269202020D4
:101D62007072690A002564002020202069660A003A
:101D7200656E64696620656E6469660A00202020CB
:101D820020207768696C650A002020202020656E7B
:101D92006477680A007370616365207370616365BC
:101DA2000A007661722020207661720A00202020CB
:101DB20066756E630A002020202063616C6C0A0045
:101DC2007265742020207265740A00726561642055
:101DD20020726561640A007772697465207772699E
:101DE20074650A003D20202020203D0A002B20207F
:101DF2002020202B0A002D20202020202D0A002A1E
:101E020020202020202A0A002F20202020202F0AF4
:101E120000282020202020280A00292020202020FD
:101E2200290A003E20202020203E0A003C202020BB
:101E320020203C0A003D3D2020203D3D0A00257324
:101E4200202020007661725F6E616D650A00257543
:101E520020202000636F6E73740A00256320202007
:101E620000636861720A00256420000A696E646575
:101E7200783A2564206572723A2073686F756C64D3
:101E820020626520223D22200A006D656D20726568
:101E92006164206F7574206F662072616E67650AD7
:101EA200006C697374206F7574206F6620696E64AC
:101EB20065780A006E756D20746F6F206269670A1B
:101EC200006E616D6520746F6F206C6F6E670A0023
:101ED200746F6F206D616E7920766172730A00757E
:101EE2006E7265636F676E697A6564207661720AE5
:101EF20000756E7265636F676E697A656420776FCD
:101F020072640A0063616E27742066696E642065DC
:101F12006E6469660A0063616E27742066696E6486
:101F220020656E6477680A0063616E2774206669B3
:101F32006E64207768696C650A0066756E63206E50
:101F4200616D6520746F6F206269670A0066756E45
:101F520063206E616D652073686F756C64206265C5
:101F6200206E756D0A006E6F20202066756E630A02
:101F72000073686F756C6420626520223D220A003E
:101F820066756E63206E6F20726574223D220A00B0
:101F920065727220636861723A2563206174200061
:101FA20065787072206572723A0A00746F6F206DE4
:101FB200616E79202228220A0022292220616E6481
:101FC2002022282220646F6E2774206D617463685A
:101FD2000A00756E7265636F676E697A6564206F59
:101FE200700A006F70206E6F20636F6E73740A0048
:101FF20076616C756520746F6F206269670A006193
:04200200743A0A0022
:103DB4009007D0E4F5F0122B259007D2740175F02A
:043DC400F4022B25B5
:103B5400901C84EBF0A3EAF0A3E9F0901C84E0FB52
:103B6400A3E0FAA3E0F99007D0122A49AEF0780254
:103B7400C333CE33CED8F9F5828E83EC8DF0122B7D
:103B840025901C89E0FCA3E0FD9007D0122A49AEE1
:103B9400F07802C333CE33CED8F929F9EA3EFA904D
:103BA4000002EC8DF0122B25901C84E0FBA3E0FABC
:103BB400A3E0F99007D0E475F001122AB99007D276
:103BC400122A49FFAEF09007D0122A49C39FE5F0AC
:073BD4009E40031236D522CA
:103BDB00901D52EBF0A3EAF0A3E9F0901D52E0FB2D
:103BEB00A3E0FAA3E0F99000A0122A49AEF0780204
:103BFB00C333CE33CED8F9F5828E83EC8DF0122BF6
:103C0B0025901D57E0FCA3E0FD9000A0122A49AEC1
:103C1B00F07802C333CE33CED8F929F9EA3EFA90C5
:103C2B000002EC8DF0122B25901D52E0FBA3E0FA65
:103C3B00A3E0F99000A0E475F001122AB99000A25C
:103C4B00122A49FFAEF09000A0122A49C39FE5F05B
:073C5B009E40031236D52242
:1037FB007B017A1C79AA901CA3E024FFFD901CA2EC
:04380B00E034FFFCAA
:10380F00901D55ECF0A3EDF0901D52EBF0A3EAF0F4
:03381F00A3E9F02A
:103822009000A0122A4945F070077A1C7996123648
:10383200D9901D55E0FFA3E0A3CFF0A3EFF0901DB8
:1038420052E0FBA3E0FAA3E0F99000A0122A49FF9C
:10385200901D58E02401FD901D57E03400FCC3ED9B
:103862009FEC95F05060E0FEA3E07802C333CE33C4
:10387200CED8F9FF901D52E0FBA3E0FAA3E02FF9A6
:10388200EA3EFA900004122A49FD901D52A3E0FA82
:10389200A3E0F98F828E83E5F08DF0122B25E92FBC
:1038A200F9EA3EFA900006122A49FF900002E5F07A
:1038B2008FF0122B25901D58E004F07081901D5757
:1038C200E004F0023840901D52E0FBA3E0FAA3E0CE
:0B38D200F99000A074FFF5F0022AB985
:0B399100901D97EBF0A3EAF0A3E9F013
:10399C007BFF7A1C79A7122071E4901D9AF0A3F09A
:1039AC00901D97E0FBA3E0FAA3E0F99007D0122A50
:1039BC0049FFC3901D9BE09F901D9AE095F05065C8
:1039CC00E0FEA3E07802C333CE33CED8F9FFF58204
:1039DC008E83122A49FD901D9CE5F0F0A3EDF0E9D1
:1039EC002FF9EA3EFA900002122A49FFAEF0901D20
:1039FC009EEEF0A3EFF07BFF7A1C79A9901D9CE062
:103A0C00FDA3E0901D72CDF0A3EDF0A3EEF0A3EFBB
:103A1C00F0122071901D9BE004F07084901D9AE0D0
:0E3A2C0004F00239AC7BFF7A1C79A7022071EE
:0D38DD00A3F0901C72E0FBA3E0FAA3E0F959
:1038EA00901CA4EBF0A3EAF0A3E9F0A3ECF0A3ED9B
:0138FA00F0DD
:1038FB00901CAC7401F0901CA9E0FBA3E0FAA3E0D0
:10390B00F9123D9F901CADEFF0901CA7E0FFA3E0D8
:10391B00901CAECFF0A3EFF0901CADE0FF7E0090BB
:10392B001CA7E0FAA3E0FB2FFFEE3AFE901CAEE0E3
:10393B00FCA3E0FDC39FEC9E5046C3ED9BFFEC9AAE
:10394B00FE901CA9E0FBA3E0FAA3E0F98F828E8323
:10395B00122997FF901CA4E0FBA3E0FAA3E0F98DDA
:10396B00828C831229976F6007E4901CACF0801057
:10397B00901CAFE004F070A0901CAEE004F08098B7
:05398B00901CACE0FF00
:013990002214
:1018F100901C72EBF0A3EAF0A3E9F0A3E0FBA3E0F4
:10190100FAA3E0F9122A1EFDACF0901CA974FFF0B5
:10191100A3741CF074B31238DDEF60028023901CB5
:1019210075E0FBA3E0FAA3E0F9122A1EFDACF090EA
:101931001CA974FFF0A3741CF074A71238DDEF60CA
:1019410016901C75E0FBA3E0FAA3E0F9E475F00141
:10195100122A81E4FEFF22901C75E0FBA3E0FAA3AA
:10196100E0F9122A1EFDACF0901CA974FFF0A374DB
:101971001CF0A374B61238DEEF6017901C75E0FB03
:10198100A3E0FAA3E0F9E475F001122A817E007F59
:101991000122901C75E0FBA3E0FAA3E0F9122A1ED4
:1019A100FDACF0901CA974FFF0A3741CF0A374B8F3
:1019B1001238DEEF6017901C75E0FBA3E0FAA3E09C
:1019C100F9E475F003122A817E007F0222901C75D2
:1019D100E0FBA3E0FAA3E0F9122A1EFDACF0901C93
:1019E100A974FFF0A3741CF0A374BC1238DEEF607D
:1019F10017901C75E0FBA3E0FAA3E0F9E475F0028F
:101A0100122A817E007F0322901C75E0FBA3E0FA7D
:101A1100A3E0F9122A1EFDACF0901CA974FFF0A3FB
:101A2100741CF0A374BF1238DEEF6017901C75E0D0
:101A3100FBA3E0FAA3E0F9E475F005122A817E0028
:101A41007F0422901C75E0FBA3E0FAA3E0F9122ABF
:101A51001EFDACF0901CA974FFF0A3741CF0A374DC
:101A6100C51238DEEF6017901C75E0FBA3E0FAA306
:101A7100E0F9E475F005122A817E007F0522901CB1
:101A810075E0FBA3E0FAA3E0F9122A1EFDACF09089
:101A91001CA974FFF0A3741CF0A374CB1238DEEF01
:101AA1006017901C75E0FBA3E0FAA3E0F9E475F080
:101AB10005122A817E007F0622901C75E0FBA3E0BF
:101AC100FAA3E0F9122A1EFDACF0901CA974FFF0F4
:101AD100A3741CF0A374D11238DEEF60028024904D
:101AE1001C75E0FBA3E0FAA3E0F9122A1EFDACF09D
:101AF100901CA974FFF0A3741CF0A374D31238DEF8
:101B0100EF6017901C75E0FBA3E0FAA3E0F9E47520
:101B1100F001122A817E007F0722901C75E0FBA351
:101B2100E0FAA3E0F9122A1EFDACF0901CA974FFA3
:101B3100F0A3741CF0A374D51238DEEF6017901C6B
:101B410075E0FBA3E0FAA3E0F9E475F003122A8142
:101B51007E007F0822901C75E0FBA3E0FAA3E0F968
:101B6100122A1EFDACF0901CA974FFF0A3741CF0A6
:101B7100A374D91238DEEF6017901C75E0FBA3E067
:101B8100FAA3E0F9E475F004122A817E007F0922AC
:101B9100901C75E0FBA3E0FAA3E0F9122A1EFDAC4C
:101BA100F0901CA974FFF0A3741CF0A374DE12382A
:101BB100DEEF6017901C75E0FBA3E0FAA3E0F9E407
:101BC10075F004122A817E007F0A22901C75E0FBC9
:101BD100A3E0FAA3E0F9122A1EFDACF0901CA9744F
:101BE100FFF0A3741CF0A374E31238DEEF601790CA
:101BF1001C75E0FBA3E0FAA3E0F9E475F004122AF6
:101C0100817E007F0B22901C75E0FBA3E0FAA3E02C
:101C1100F9122A1EFDACF0901CA974FFF0A3741CEC
:101C2100F0A374E71238DEEF6017901C75E0FBA398
:101C3100E0FAA3E0F9E475F004122A817E007F0C3A
:101C410022901C75E0FBA3E0FAA3E0F9122A1EFD25
:101C5100ACF0901CA974FFF0A3741CF0A374EC12F7
:101C610038DEEF6017901C75E0FBA3E0FAA3E0F902
:101C7100E475F005122A817E007F0D227EFF7FFF31
:011C81002240
:102C8D00901C72EBF0A3EAF0A3E9F0A3E0FBA3E044
:102C9D00FAA3E0F9122A1EFDACF0901CA974FFF006
:102CAD00A3741CF0A374F2F0901C721238E2EF6062
:102CBD0017901C75E0FBA3E0FAA3E0F9E475F002B0
:102CCD00122A817E007F5922901C75E0FBA3E0FA49
:102CDD00A3E0F9122A1EFDACF0901CA974FFF0A31D
:102CED00741CF0A374F5F0901C721238E2EF6017AB
:102CFD00901C75E0FBA3E0FAA3E0F9E475F0011276
:102D0D002A817E007F5022901C75E0FBA3E0FAA380
:102D1D00E0F9122A1EFDACF0901CA974FFF0A3740B
:102D2D001CF0A374F7F0901C721238E2EF6017904C
:102D3D001C75E0FBA3E0FAA3E0F9E475F001122A9B
:102D4D00817E007F5122901C75E0FBA3E0FAA3E089
:102D5D00F9122A1EFDACF0901CA974FFF0A3741C8F
:102D6D00F0A374F9F0901C721238E2EF6017901C0A
:102D7D0075E0FBA3E0FAA3E0F9E475F001122A81F6
:102D8D007E007F5222901C75E0FBA3E0FAA3E0F9D0
:102D9D00122A1EFDACF0901CA974FFF0A3741CF058
:102DAD00A374FBF0901C721238E2EF6017901C7543
:102DBD00E0FBA3E0FAA3E0F9E475F001122A817EAD
:102DCD00007F5322901C75E0FBA3E0FAA3E0F912FB
:102DDD002A1EFDACF0901CA974FFF0A3741CF0A387
:102DED0074FDF0901C721238E2EF6017901C75E0C4
:102DFD00FBA3E0FAA3E0F9E475F001122A817E004D
:102E0D007F5422901C75E0FBA3E0FAA3E0F9122A8F
:102E1D001EFDACF0901CA974FFF0A3741CF0A374FC
:102E2D00FFF0901C721238E2EF6017901C75E0FBFA
:102E3D00A3E0FAA3E0F9E475F001122A817E007F88
:102E4D005522901C75E0FBA3E0FAA3E0F9122A1EAF
:102E5D00FDACF0901CA974FFF0A3741DF0A37401D8
:102E6D00F0901C721238E2EF6017901C75E0FBA316
:102E7D00E0FAA3E0F9E475F001122A817E007F5695
:102E8D0022901C75E0FBA3E0FAA3E0F9122A1EFDC7
:102E9D00ACF0901CA974FFF0A3741DF0A37403F0A3
:102EAD00901C721238E2EF6017901C75E0FBA3E0E6
:102EBD00FAA3E0F9E475F001122A817E007F572212
:102ECD00901C75E0FBA3E0FAA3E0F9122A1EFDACFD
:102EDD00F0901CA974FFF0A3741DF0A37405F0907D
:102EED001C721238E2EF6017901C75E0FBA3E0FA3C
:102EFD00A3E0F9E475F001122A817E007F58227E4D
:042F0D00FF7FFF2221
:0B236B00901C72EBF0A3EAF0A3E9F075
:10237600A3E0FBA3E0FAA3E0F9122A1EFF901C7269
:10238600E0FBA3E0FAA3E0F98F8285F08312299798
:10239600FFD3648094B950047E0180027E00C3EFAF
:1023A600648094B040047F0180027F00EF5E70037A
:1023B600022551901C75E0FBA3E0FAA3E0F9122A6E
:1023C6001EFF901C72E0FBA3E0FAA3E0F98F828562
:1023D600F083122997FF3395E0FEEF24D0FFEE3409
:1023E600FFFE3395E0FD02249F901C75E0FBA3E001
:1023F600FAA3E0F9122A1EFF901C72E0FBA3E0FA92
:10240600A3E0F98F8285F083122997FFD364809425
:10241600B950047E0180027E00C3EF648094B04010
:10242600047F0180027F00EF5E70030224BB901CD4
:1024360075E0FBA3E0FAA3E0F9122A1EFF901C72D6
:10244600E0FBA3E0FAA3E0F98F8285F083122997D7
:10245600FF3395E0FEFDFCC004C005C006C007E4DE
:102466007F0AFEFDFC901C7EE0F8A3E0F9A3E0FAEB
:10247600A3E0FB122B52D003D002D001D000EF2BE9
:10248600FFEE3AFEED39FDEC38FCEF24D0FFEE34DA
:10249600FFFEED34FFFDEC34FFFC901C7E122BB7E3
:1024A600901C75E0FBA3E0FAA3E0F9E475F00112D5
:1024B6002A810223EF74FFFFFEFD7C7F901C7EE0E5
:1024C600F8A3E0F9A3E0FAA3E0FBD3122BA14006A0
:1024D6007F01C00780047F00C007E4FFFEFD7C800B
:1024E600901C7EE0F8A3E0F9A3E0FAA3E0FBC31298
:1024F6002BA150047E0180027E00D0E04E60289021
:102506001C75E0FBA3E0FAA3E0F9122A1EFF901D5A
:102516005DE5F0F0A3EFF0901C72E0FBA3E0FAA3F8
:10252600E0F97F021236E5901C78E0FBA3E0FAA3FF
:10253600E0F9901C80E0FCA3E0FD901C89E4F0A388
:1025460074A1F0123B547E007FA122901C75E0FB23
:10255600A3E0FAA3E0F9122A1EFF901C72E0FBA387
:10256600E0FAA3E0F98F8285F0831229976422703E
:10257600718044901C75E0FBA3E0FAA3E0F9122AEF
:102586001EFF901C72E0FBA3E0FAA3E0F98F8285A0
:10259600F083122997FF64226031EFFD3395E0FC4A
:1025A600901C89E4F0A374A2F0901C78E0FBA3E0F1
:1025B600FAA3E0F9123B54901C75E0FBA3E0FAA3E2
:1025C600E0F9E475F001122A8180A8901C75E0FB01
:1025D600A3E0FAA3E0F9E475F001122A817E007FF8
:0225E600A2222F
:1025E800901C7BE0F9A3E0FAA3E0901C87C9F0A354
:1025F800EAF0A3E9F0901C75E0F9A3E0FAA3E090F3
:102608001C8AC9F0A3EAF0A3E9F0901C72E0FBA3CE
:10261800E0FAA3E0F91235AA901C82EEF0A3EFF0DD
:10262800C3EE64809480405D901C82E0FEA3E0FFCE
:102638007C007D0F1229D6901C7BE0FBA3E0FAA357
:10264800E02FF9EA3EFA123D9FEF2401FFE43EFE37
:10265800901C75E0FBA3E0FAA3E0F9EE8FF0122AD4
:1026680081901C78E0FBA3E0FAA3E0F9901C82E0DB
:10267800FCA3E0FD901C89E4F0A374A0F0123B5485
:052688007E007FA0228E
:04268D007EFF7FFF4E
:012691002226
:0B2F1100901C72EBF0A3EAF0A3E9F0C3
:102F1C00901C78E0FBA3E0FAA3E0F9E475F0011251
:102F2C002A81901C78E0FBA3E0FAA3E0F9122A1E98
:102F3C00FF901C72E0FBA3E0FAA3E0F98F8285F00E
:102F4C0083122997642060C8E4901C7BF0901C7855
:102F5C00E0FBA3E0FAA3E0F9122A1EFF901C72E03A
:102F6C00FBA3E0FAA3E0F98F8285F083122997FF87
:102F7C00C007901C75E0FBA3E0FAA3E0F99007F8FA
:102F8C00122A49FFAEF07C007D0F1229D6E92FF9E9
:102F9C00EA3EFA901C7BE07E0029F9EE3AFAD0E08A
:102FAC001229C4901C78E0FBA3E0FAA3E0F9122AE2
:102FBC001EFF901C72E0FBA3E0FAA3E0F98F828560
:102FCC00F083122997901D72F0A3F07BFF7A1D7984
:102FDC0007122071901C78E0FBA3E0FAA3E0F9E45F
:102FEC0075F001122A81901C7BE004F0E0C3940E72
:102FFC004028901C78E0FBA3E0FAA3E0F9122A1E0B
:10300C00FF901D5DE5F0F0A3EFF0901C72E0FBA3C8
:10301C00E0FAA3E0F97F031236E5901C78E0FBA3FD
:10302C00E0FAA3E0F9122A1EFF901C72E0FBA3E069
:10303C00FAA3E0F98F8285F083122997FF640D6063
:10304C00047E0180027E00EF642060047F01800218
:10305C007F00EF5EFF901C78E0FBA3E0FAA3E0F9A1
:10306C00122A1EFD901C72E0FBA3E0FAA3E0F98D7E
:10307C008285F083122997640A60047E0180027EA7
:10308C0000EE5F6003022F59901C75E0FBA3E0FA81
:10309C00A3E0F99007F8122A49FFAEF07C007D0FEF
:1030AC001229D6E92FF9EA3EFA901C7BE07E002922
:1030BC00F9EE3AFAE41229C4901C78E0FBA3E0FA8A
:1030CC00A3E0F9E475F001122A81901C75E0FBA3D2
:1030DC00E0FAA3E0F99007F8E475F001122AB99030
:1030EC0007F8122A49C39478E5F094004028901C04
:1030FC0078E0FBA3E0FAA3E0F9122A1EFF901D5D15
:10310C00E5F0F0A3EFF0901C72E0FBA3E0FAA3E073
:06311C00F97F041236E504
:01312200228A
:0B35AA00901C84EBF0A3EAF0A3E9F012
:1035B500E4901C8DF0123D9F901C8AE0FBA3E0FA7D
:1035C500A3E0F9122A1EC39FE5F09E400302368050
:1035D500901C8AE0FBA3E0FAA3E0F9122A1EFF90F3
:1035E5001C8DE02FFFE435F0FE901C84E0FBA3E08A
:1035F500FAA3E0F98F828E83122997FF6420604633
:10360500901C8DE02490F582E4341CF583EFF09056
:103615001C8DE004F0E0C3941440B5C003C002C0A3
:1036250001901C8AE0FBA3E0FAA3E0F9122A1EFF31
:10363500901D5DE5F0F0A3EFF0D001D002D0037F3F
:10364500031236E5808A901C8DE02490F582E434DF
:103655001CF583E4F0901C8EF0A3F0901C87E0FB32
:10366500A3E0FAA3E0F99007F8122A49FFC3901CDA
:103675008FE09F901C8EE095F040057EFF7FFF2236
:10368500901C8EE0FEA3E0FF7C007D0F1229D690F2
:103695001C87E0FBA3E0FAA3E02FF9EA3EFA901CB1
:1036A500A9EBF0A3EAF0A3E9F07B017A1C7990E499
:1036B500FD1238EAEF6009901C8EE0FEA3E0FF22C0
:1036C500901C8FE004F07093901C8EE004F0808BCA
:0B3CDE00901DA0EBF0A3EAF0A3E9F0BA
:103CE9007BFF7A1C79A7122071E4901DA3F0901D27
:103CF900A0E0FBA3E0FAA3E0F99007F8122A49FF34
:103D0900901DA3E0C39FE495F0502EE075F00FA439
:103D1900FF901DA0A3A3E02FF9EA35F0FA901D72D8
:103D2900EBF0A3EAF0A3E9F07BFF7A1D791D1220DD
:103D390071901DA3E004F080B57BFF7A1C79A7027E
:023D49002071E7
:103C6200901C5FE0FBA3E0FAA3E0F9901C6BE02458
:093C720001FD901C6AE03400FC25
:0B3C7B00901C8BEBF0A3EAF0A3E9F033
:083C8600AF05A3ECF0A3EFF081
:103C8E00E4901C90F0901C8EE0FEA3E07802C3330B
:103C9E00CE33CED8F9FF901C8BE0FBA3E0FAA3E065
:103CAE002FF9EA3EFA900002122A49FF901C90E08A
:103CBE00B5070DE4B5F009901C8EE0FEA3E0FF22DF
:103CCE00901C8FE004F070B8901C8EE004F080B071
:103A3A00901D5FEBF0A3EAF0A3E9F0A3ECF0A3ED8D
:013A4A00F08B
:103A4B00E4A3F07BFF7A1D792A901D72ECF0A3EDB5
:103A5B00F01220717BFF7A1D7935122071E4901DD5
:103A6B0064F0901D5FE0FBA3E0FAA3E0F9123D9F29
:103A7B00901D64E0FD901D63E02DFD901D62E03410
:103A8B0000FCC3ED9FEC9E502B901D5FE0FBA3E071
:103A9B00FAA3E0F98D828C83122997901D72F07B2B
:103AAB00FF7A1D793B122071901D64E004F0E0C396
:0D3ABB00940F40AE7BFF7A1C79A7022071AA
:0B32D900901C5FEBF0A3EAF0A3E9F00B
:1032E400123D9F901C68EEF0A3EFF0E4A3F0A3F06E
:1032F400A3F0A3F0901C62E0FBA3E0FAA3E0F912B0
:103304003DB4901C65E0FBA3E0FAA3E0F99007F854
:10331400E4F5F0122B25901C757401F0A3741CF0D5
:10332400A3746AF0901C5FE0FBA3E0FAA3E0F91237
:1033340018F1901C6EEEF0A3EFF0C3EE648094805D
:103344004054901C6EE0FEA3E0FF64074E60C7EF9C
:1033540064084E7031901C65E0F9A3E0FAA3E09094
:103364001C75C9F0A3EAF0A3E9F0A37401F0A374F7
:103374001CF0A3746AF0901C5FE0FBA3E0FAA3E0E6
:10338400F9122F118090901C62E0FBA3E0FAA3E0F5
:10339400F9901C6E803C901C757401F0A3741CF0B1
:1033A400A3746AF0901C5FE0FBA3E0FAA3E0F912B7
:1033B4002C8D901C70EEF0A3EFF0D39400EE64809B
:1033C40094804021901C62E0FBA3E0FAA3E0F99012
:1033D4001C70E0FCA3E0FD901C89ECF0A3EDF0125E
:1033E4003B5402331A901C757401F0A3741CF0A3AF
:1033F400746AF0901C62E0F9A3E0FAA3E0901C78F0
:10340400C9F0A3EAF0A3E9F0901C65E0F9A3E0FA9F
:10341400A3E0901C7BC9F0A3EAF0A3E9F0901C5F41
:10342400E0FBA3E0FAA3E0F912236BD3EF9400EEE0
:1034340064809480400302331A901C6BE004F070A3
:1034440006901C6AE004F0901C68E0FEA3E0FFA371
:10345400E0FCA3E0FDC39FEC9E501B901C5FE0FBCF
:10346400A3E0FAA3E0F9901D5DECF0A3EDF07F0674
:063474001236E502331AD6
:01347A00222F
:0B000300901C5FEBF0A3EAF0A3E9F013
:10000E00E4901C65F0A3F0A3F0A3F0A3F0901C6A9B
:10001E007403F0901C65E0FEA3E07802C333CE3388
:10002E00CED8F9FF901C62E0FBA3E0FAA3E02FF913
:10003E00EA3EFA900002122A49FF901C6AE06F70A5
:10004E0002E5F060030201C0901C65E0FFA3E0A38F
:10005E00CFF0A3EFF0901C68E004F07006901C67E0
:10006E00E004F0901C6A7403F0901C67E0FEA3E0BD
:10007E007802C333CE33CED8F9FF901C62E0FBA3D7
:10008E00E0FAA3E02FF9EA3EFA900002122A49FFA5
:10009E00901C6AE0B5070AE4B5F006901C69E0040E
:1000AE00F0901C6A7404F0901C62E0FBA3E0FAA3CB
:1000BE00E0F99007D0122A49FFC3901C68E09F9088
:1000CE001C67E095F0401F901C5FE0FBA3E0FAA3D5
:1000DE00E0F9901C65E0FFA3E0901D5DCFF0A3EF6B
:1000EE00F07F0702079B901C67E0FEA3E07802C337
:1000FE0033CE33CED8F9FF901C62E0FBA3E0FAA317
:10010E00E02FF9EA3EFA900002122A49FF901C6A8B
:10011E00E0B50708E4B5F0047F0180027F00901C73
:10012E0069E070047E0180027E00EF5E6030901CFC
:10013E0067E0FCA3E0FD901C65E0FEA3E07802C33F
:10014E0033CE33CED8F9FF901C62E0FBA3E0FAA3C6
:10015E00E0F98F828E83EC8DF0122B258054901C4B
:10016E0067E0FEA3E07802C333CE33CED8F9FF901A
:10017E001C62E0FBA3E0FAA3E02FF9EA3EFA90003E
:10018E0002122A49FF901C6AE0B50708E4B5F00494
:10019E007F0180027F00901C69E060047E01800276
:1001AE007E00EE5F7003020063901C69E014F002A3
:1001BE000063901C6A7405F0901C65E0FEA3E07865
:1001CE0002C333CE33CED8F9FF901C62E0FBA3E01E
:1001DE00FAA3E02FF9EA3EFA900002122A49FF90A4
:1001EE001C6AE06F7002E5F0600302036B901C6501
:1001FE00E0FFA3E0A3CFF0A3EFF0901C68E004F0C3
:10020E007006901C67E004F0901C6A7405F0901C58
:10021E0067E0FEA3E07802C333CE33CED8F9FF9069
:10022E001C62E0FBA3E0FAA3E02FF9EA3EFA90008D
:10023E0002122A49FF901C6AE0B5070AE4B5F006DF
:10024E00901C69E004F0901C6A7406F0901C62E049
:10025E00FBA3E0FAA3E0F99007D0122A49FFC3905E
:10026E001C68E09F901C67E095F0401F901C5FE0BB
:10027E00FBA3E0FAA3E0F9901C65E0FFA3E0901D5C
:10028E005DCFF0A3EFF07F0802079B901C67E0FEA6
:10029E00A3E07802C333CE33CED8F9FF901C62E0D0
:1002AE00FBA3E0FAA3E02FF9EA3EFA900002122A2D
:1002BE0049FF901C6AE0B50708E4B5F0047F0180A1
:1002CE00027F00901C69E070047E0180027E00EFC8
:1002DE005E6036901C68E02401FD901C67E03400DF
:1002EE00FC901C65E0FEA3E07802C333CE33CED87B
:1002FE00F9FF901C62E0FBA3E0FAA3E0F98F828E77
:10030E0083EC8DF0122B258054901C67E0FEA3E049
:10031E007802C333CE33CED8F9FF901C62E0FBA334
:10032E00E0FAA3E02FF9EA3EFA900002122A49FF02
:10033E00901C6AE0B50708E4B5F0047F0180027FE7
:10034E0000901C69E060047E0180027E00EE5F700A
:10035E0003020208901C69E014F0020208901C6A65
:10036E007406F0901C65E0FEA3E07802C333CE3332
:10037E00CED8F9FF901C62E0FBA3E0FAA3E02FF9C0
:10038E00EA3EFA900002122A49FF901C6AE06F7052
:10039E0002E5F06003020516901C65E0FFA3E0A3E2
:1003AE00CFF0A3EFF0901C68E024FFF0901C67E004
:1003BE0034FFF0901C6A7406F0901C67E0FEA3E018
:1003CE007802C333CE33CED8F9FF901C62E0FBA384
:1003DE00E0FAA3E02FF9EA3EFA900002122A49FF52
:1003EE00901C6AE0B5070AE4B5F006901C69E004BB
:1003FE00F0901C6A7405F0901C62E0FBA3E0FAA377
:10040E00E0F99007D0122A49FFC3901C68E09F9034
:10041E001C67E095F0401F901C5FE0FBA3E0FAA381
:10042E00E0F9901C65E0FFA3E0901D5DCFF0A3EF17
:10043E00F07F0902079B901C67E0FEA3E07802C3E1
:10044E0033CE33CED8F9FF901C62E0FBA3E0FAA3C3
:10045E00E02FF9EA3EFA900002122A49FF901C6A38
:10046E00E0B50708E4B5F0047F0180027F00901C20
:10047E0069E070047E0180027E00EF5E6036901CA3
:10048E0068E024FFFD901C67E034FFFC901C65E0E3
:10049E00FEA3E07802C333CE33CED8F9FF901C62B0
:1004AE00E0FBA3E0FAA3E0F98F828E83EC8DF012CD
:1004BE002B258054901C67E0FEA3E07802C333CE58
:1004CE0033CED8F9FF901C62E0FBA3E0FAA3E02F35
:1004DE00F9EA3EFA900002122A49FF901C6AE0B532
:1004EE000708E4B5F0047F0180027F00901C69E0EC
:1004FE0060047E0180027E00EE5F70030203B39003
:10050E001C69E014F00203B3901C6A740AF0901C8C
:10051E0065E0FEA3E07802C333CE33CED8F9FF9068
:10052E001C62E0FBA3E0FAA3E02FF9EA3EFA90008A
:10053E0002122A49FF901C6AE06F7002E5F0600318
:03054E000207039E
:10055100900004122A49FF901C6BE5F0F0A3EFF024
:10056100901C6A7409F0E4901C6DF0A3F0901C6D6E
:10057100E0FEA3E07802C333CE33CED8F9FF901C5E
:1005810062E0FBA3E0FAA3E02FF9EA3EFA90000251
:10059100122A49FF901C6AE06F7002E5F0600302C5
:1005A10006B1901C6EE004F07006901C6DE004F042
:1005B100901C6F74A1F0901C6DE0FEA3E07802C363
:1005C10033CE33CED8F9FF901C62E0FBA3E0FAA34F
:1005D100E02FF9EA3EFA900002122A49FF901C6FBF
:1005E100E0B50708E4B5F0047D0180027D00901CB0
:1005F1006DE0FEA3E07802C333CE33CED8F9FF908D
:100601001C62E0FBA3E0FAA3E0F98F828E83122A39
:1006110049FF901C6BE0B5F009A3E0B507047F0129
:1006210080027F00ED5F6037901C6EE02401FD9039
:100631001C6DE03400FC901C65E0FEA3E07802C371
:1006410033CE33CED8F9FF901C62E0FBA3E0FAA3CE
:10065100E0F98F828E83EC8DF0122B250207039037
:100661001C6DE0FEA3E07802C333CE33CED8F9FF90
:10067100901C62E0FBA3E0FAA3E02FF9EA3EFA90B6
:100681000002122A49FF901C6FE06F7002E5F060D2
:100691001F901C5FE0FBA3E0FAA3E0F9901C65E06A
:1006A100FFA3E0901D5DCFF0A3EFF07F0B1236E5C5
:1006B100901C62E0FBA3E0FAA3E0F99007D0122AB4
:1006C10049FFC3901C6EE09F901C6DE095F04021A6
:1006D100901C5FE0FBA3E0FAA3E0F9901C65E0FF4A
:1006E100A3E0901D5DCFF0A3EFF07F0C1236E58003
:1006F10011901C6EE004F07006901C6DE004F00295
:02070100056E83
:10070300901C6A7409F0901C65E0FEA3E07802C3B4
:1007130033CE33CED8F9FF901C62E0FBA3E0FAA3FB
:10072300E02FF9EA3EFA900002122A49FF901C6A70
:10073300E06F7002E5F06003020807901C65E0FFBC
:10074300A3E0A3CFF0A3EFF0901C68E004F07006E1
:10075300901C67E004F0901C6A740BF0901C62E03C
:10076300FBA3E0FAA3E0F99007D0122A49FFC39054
:100773001C68E09F901C67E095F0401F901C5FE0B1
:10078300FBA3E0FAA3E0F9901C65E0FFA3E0901D52
:100793005DCFF0A3EFF07F0D0236E5901C67E0FE1E
:1007A300A3E07802C333CE33CED8F9FF901C62E0C6
:1007B300FBA3E0FAA3E02FF9EA3EFA900002122A23
:1007C30049FF901C6AE06F7002E5F0600302074B7B
:1007D300901C68E02401FD901C67E03400FC901C31
:1007E30065E0FEA3E07802C333CE33CED8F9FF90A1
:1007F3001C62E0FBA3E0FAA3E0F98F828E83EC8D09
:10080300F0122B25901C66E004F07006901C65E046
:1008130004F0901C62E0FBA3E0FAA3E0F99007D098
:10082300122A49FFC3901C66E09F901C65E095F077
:05083300500302001B50
:01083800229D
:100F0B00901C87EEF0FCA3EFF0FD901C5FE0F9A3C3
:100F1B00E0FAA3E0901C8EC9F0A3EAF0A3E9F090ED
:100F2B001C6BE02401FE901C6AE03400901C91F0D5
:100F3B00A3CEF0A3ECF0EDA3F0901C62E0FBA3E0DA
:040F4B00FAA3E0F92C
:0B0F4F00901C8BEBF0A3EAF0A3E9F08C
:100F5A00E4901D4AF0A3F0A3F0A37428F0E4901CD7
:100F6A009CF0901C91E0FFA3E0901C99CFF0A3EFB6
:100F7A00F0901C93E0FEA3E0FF901C99E0FCA3E034
:100F8A00FDC39FEC9E4003021232EDAE047802C309
:100F9A0033CE33CED8F9FF901C8EE0FBA3E0FAA340
:100FAA00E02FF9EA3EFA900002122A49FF901C9BB0
:100FBA00F0901C957455F0BF5536901C9CE02405A2
:100FCA00F0E0D3648094F85003021221901C8BE065
:100FDA00F9A3E0FAA3E0901D55C9F0A3EAF0A3E94A
:100FEA00F0E4A3F0A3ECF0A3EDF0901C8E02121E25
:100FFA00901C957456F0901C9BE0B45640A3E024D4
:10100A00FBF0E0C3648094804003021221901C8BA1
:10101A00E0F9A3E0FAA3E0901D55C9F0A3EAF0A312
:10102A00E9F0A37401F0901C99E0FFA3E0901D5928
:10103A00CFF0A3EFF0901C8EE0FB02121E901C95DD
:10104A007457F0A304F07F59901C9BE0FEB4580437
:10105A007D0180027D00901C95E0B506047E01802A
:10106A00027E00EE4DFE901C9BE0FDB507047F0159
:10107A0080027F00EF4E60177B017A1C79AA7C0000
:10108A00901C9CE0FF3395E0FEEF240102111990B9
:10109A001C957451F0A304F0901C9BE0FFB4520419
:1010AA007E0180027E00901C95E0B507047F0180D6
:1010BA00027F00EF4E60197B017A1C79AA901C9B73
:1010CA00E0FD7C00A3E0FF3395E0FEEF2402803FC1
:1010DA00901C957453F0A304F0901C9BE0FFB45449
:1010EA00047E0180027E00901C95E0B507047F0112
:1010FA0080027F00EF4E60237B017A1C79AA901C44
:10110A009BE0FD7C00A3E0FF3395E0FEEF2403FFA4
:10111A00E43E901D57F0A3EF0211EB901C9774A1C7
:08112A00F0901C9BE0B4A13E13
:10113200901C99E0FEA3E07802C333CE33CED8F9F7
:10114200FF901C8EE0FBA3E0FAA3E0F98F828E836E
:10115200122A49FFAEF0901D4EEEF0FCA3EFF0FD17
:0E1162007B017A1C79AAE4901D57F0A3807BD4
:0E117000901C9774A0F0901C9BE064A070731C
:10117E00901C99E0FEA3E07802C333CE33CED8F9AB
:10118E00FF901C8EE0FBA3E0FAA3E0F98F828E8322
:10119E00122A49FF901D4EE5F0F0A3EFF0901C8B44
:1011AE00E0FBA3E0FAA3E02408F9EA3407FA901D65
:1011BE004FE025E0FF901D4EE033FEE92FF9EA3EA9
:1011CE00FA122A1EFFAEF0901D50EEF0FCA3EFF0C7
:1011DE00FD7B017A1C79AAE4901D57F0A3F0123B17
:0311EE00DB803073
:1011F100901C8BE0F9A3E0FAA3E0901D55C9F0A380
:10120100EAF0A3E9F0A37402F0901C99E0FFA3E0D7
:10121100901D59CFF0A3EFF0901C8EE0FB1234A289
:10122100901C9AE004F07006901C99E004F0020F03
:101231007BE4901C9DF0901C99F0A3F0901D4AE076
:10124100FEA3E0FFC3901C9AE09F901C99E09E5082
:1012510033A3E025E025E024ACF582E4341CF583DA
:10126100E0FEA3E0FF901C9DE0FDD3EF9DEE940016
:101271004002EFF0901C9AE004F070C0901C99E0DD
:1012810004F080B8E4901CA4F0A3F0901C9DE0FF52
:10129100C3901CA5E09F901CA4E09400400302159C
:1012A10050E4901CA2021539E4901CA2F0A3F0FFB7
:1012B100FED3901D4BE09F901D4AE09E4041901C43
:1012C1009DE0FD901CA4E0FAA3E0FBED9BFDE49AF8
:1012D100FCEF25E025E024ACF582E4341CF583E045
:1012E100FAA3E06D7002EA6C6015901CA3E004F0B3
:1012F1007006901CA2E004F00FBF00010E80B290B6
:101301001D4AE0FEA3E0FF901CA2E0FCA3E0FD6FFC
:101311007002EC6E700302153FED4C7008901CA634
:1013210012347B801D901CA3E025E025E024A6F566
:1013310082E4341CF583E0FFA3E0901CA6CFF0A368
:10134100EFF0901D4BE024FFFF901D4AE034FFFEBB
:10135100901CA2E0FCA3E0FDB5070DECB50609E485
:10136100901CA812347B801D901CA3E025E025E091
:1013710024AEF582E4341CF583E0FFA3E0901CA8C1
:10138100CFF0A3EFF0901CA3E025E025E024AAF51F
:1013910082E4341CF583A3E0FF901C9BF0BF53153E
:1013A100901CA8E0FCA3E0FD901CA6E0FEA3E0FFDA
:1013B1001229D6801B901C9BE0FBB45416901CA8EC
:1013C100E0FCA3E0FD901CA6E0FEA3E0FF1229E8EB
:1013D100EE8037EBB45116901CA8E0FEA3E0FF901D
:1013E1001CA7E02FFF901CA6E03EFE801D901C9BD9
:1013F100E0FBB4521C901CA8E0FEA3E0FFC3901CCC
:10140100A7E09FFF901CA6E09EFE3395E0FDFC80C7
:101411007AEBB45726901CA8E0FEA3E0FFD3901C02
:10142100A7E09FEE6480F8901CA6E0648098E440F9
:10143100047F018001FFFEFDFC8050901C9BE0FBBE
:10144100B45826901CA8E0FEA3E0FFC3901CA7E0BF
:101451009FEE6480F8901CA6E0648098E450047FBD
:10146100018001FFFEFDFC8022EBB45924901CA8F1
:10147100E0FEA3E0FF901CA6E0B5060AA3E0B507D5
:1014810005E47F018002E4FFFEFDFC901C9E122B0F
:10149100B774FFFFFEFD7C7F901C9EE0F8A3E0F98E
:1014A100A3E0FAA3E0FBD3122BA140067F01C00702
:1014B10080047F00C007E4FFFEFD7C80901C9EE05D
:1014C100F8A3E0F9A3E0FAA3E0FBC3122BA15004B7
:1014D1007E0180027E00D0E04E6029901C8BE0F9F5
:1014E100A3E0FAA3E0901D55C9F0A3EAF0A3E9F047
:1014F100A37404F0901CA2E0FFA3E0901D59CFF06B
:10150100EF12349B1237FB1237FB901CA0E0FEA3B5
:10151100E0FF901CA3E0FD25E025E024A6F582E490
:10152100341CF583EEF0A3EFF0ED25E025E024A8CF
:10153100F582E4341CF583E4F0A3F00212A9901CB7
:10154100A5E004F07006901CA4E004F002128C9057
:071551001CAAE0FEA3E0FF6D
:011558002270
:0B155900901D5FEBF0A3EAF0A3E9F0A7
:10156400901D65E0FFA3E0901D69CFF0A3EFF0901C
:101574001D67E0FEA3E0FFC3901D6AE09F901D6914
:10158400E09E40030218F0E0FEA3E07802C333CEED
:1015940033CED8F9FF901D5FE0FBA3E0FAA3E0F996
:1015A4008F828E83122A49FD901D6BE5F0F0A3ED26
:1015B400F0E92FF9EA3EFA900002122A49FF901D41
:1015C4006DE5F0F0A3EFF07BFF7A1D793E901D6985
:1015D400E0FFA3E0901D72CFF0A3EFF01220719012
:1015E4001D6DE07002A3E070097BFF7A1D7949024A
:1015F4001778901D6DE07004A3E0640170097BFF0F
:101604007A1D7953021778901D6DE07004A3E0648D
:101614000270097BFF7A1D795C021778901D6DE0DA
:101624007004A3E0640370217BFF7A1D7967901D29
:101634006BE0FFA3E0901D72CFF0A3EFF0122071D6
:101644007BFF7A1D796A021778901D6DE07004A300
:10165400E0640470097BFF7A1D7972021778901D8B
:101664006DE07004A3E0640570217BFF7A1D796747
:10167400901D6BE0FFA3E0901D72CFF0A3EFF0127A
:1016840020717BFF7A1D797F021778901D6DE070C1
:1016940004A3E0640670217BFF7A1D7967901D6BBB
:1016A400E0FFA3E0901D72CFF0A3EFF01220717B56
:1016B400FF7A1D798B021778901D6DE07004A3E00A
:1016C400640770097BFF7A1D7997021778901D6D66
:1016D400E07004A3E0640870097BFF7A1D79A4021A
:1016E4001778901D6DE07004A3E0640970207BFFFF
:1016F4007A1D7967901D6BE0FFA3E0901D72CFF017
:10170400A3EFF01220717BFF7A1D79AF8066901DE4
:101714006DE07004A3E0640A70207BFF7A1D796792
:10172400901D6BE0FFA3E0901D72CFF0A3EFF012C9
:1017340020717BFF7A1D79B8803A901D6DE07004AA
:10174400A3E0640B70087BFF7A1D79C28026901D8C
:101754006DE07004A3E0640C70087BFF7A1D79CD02
:101764008012901D6DE07004A3E0640D70097BFF8E
:101774007A1D79D9122071901D6DE07004A3E06484
:101784005070097BFF7A1D79E6021844901D6DE0C4
:101794007004A3E0645170097BFF7A1D79EF02188D
:1017A40044901D6DE07004A3E0645270097BFF7ADD
:1017B4001D79F8021844901D6DE07004A3E0645391
:1017C40070087BFF7A1E79018076901D6DE07004AD
:1017D400A3E0645470087BFF7A1E790A8062901D2E
:1017E4006DE07004A3E0645570087BFF7A1E7913E2
:1017F400804E901D6DE07004A3E0645670087BFF7A
:101804007A1E791C803A901D6DE07004A3E0645741
:1018140070087BFF7A1E79258026901D6DE0700488
:10182400A3E0645870087BFF7A1E792E8012901D05
:101834006DE07004A3E0645870097BFF7A1E793769
:10184400122071901D6DE07004A3E064A0703A90C2
:101854001D6BE0FEA3E0FF7C007D0F1229D6901DD6
:1018640062E0FBA3E0FAA3E02FF9EA3EFA901D72CE
:10187400EBF0A3EAF0A3E9F07BFF7A1E7940122093
:10188400717BFF7A1E7946804F901D6DE07004A332
:10189400E064A170207BFF7A1E7950901D6BE0FFFD
:1018A400A3E0901D72CFF0A3EFF01220717BFF7ABA
:1018B4001E79568023901D6DE07004A3E064A2702D
:1018C4001A7BFF7A1E795D901D6CE0901D72F012F8
:1018D40020717BFF7A1E7963122071901D6AE004E7
:0C18E400F07006901D69E004F00215731E
:0118F00022D5
:0B083900901C5FEBF0A3EAF0A3E9F0D5
:10084400E4901C6AF0A3F0901C85F0A3F0901C5F68
:10085400E0FBA3E0FAA3E0F99007D0122A49FF9045
:100864001C6AE0FCA3E0FDC39FEC95F04003020F7B
:100874000AEDAE047802C333CE33CED8F9FF901C10
:100884005FE0FBA3E0FAA3E02FF9EA3EFA9000024E
:10089400122A49901C6CF0901C5FA3E0FAA3E0F9C3
:1008A4008F828E83122A49FF901C6DE5F0F0A3EF2E
:1008B400F0E4901C68F0901C6CE0FF7010901C6BCE
:1008C400E004F07088901C6AE004F08080901C685A
:1008D4007402F06F60030209CF901C6BE004F070A7
:1008E40006901C6AE004F0901C6AE0FEA3E0780223
:1008F400C333CE33CED8F9FF901C5FE0FBA3E0FAFC
:10090400A3E02FF9EA3EFA900002122A49901C6CE7
:10091400F0901C5FA3E0FAA3E0F98F828E83122A81
:1009240049FF901C6DE5F0F0A3EFF0901C6974A1F1
:10093400F0901C6CE0B4A1087BFF7A1E79698059A1
:10094400901C6974A0F0901C6CE0B4A039901C62F7
:10095400E0FBA3E0FAA3E02408F9EA3407FA901CC8
:100964006EE025E0FF901C6DE033FEE92FF9EA3ECE
:10097400FA122A1EFF901D72E5F0F0A3EFF07BFF40
:100984007A1E79698020901C6974A2F0901C6CE036
:10099400B4A2197BFF7A1D793BA3E0FFA3E0901D6D
:1009A40072CFF0A3EFF01220710208DDE4901C680E
:1009B400F0901C6CE060030208DD901C6BE004F016
:1009C4007006901C6AE004F0020851901C6974A03F
:0C09D400F0901C6CE064A06003020AB903
:1009E000901C5FE0FBA3E0FAA3E0F9901C6BE0240D
:1009F00002123C73901C87EEF0A3EFF0901C5FE0B6
:100A0000F9A3E0FAA3E0901C8EC9F0A3EAF0A3E9F1
:100A1000F0901C6BE02402FE901C6AE03400901CF5
:100A200091F0A3CEF0901C87E0FFA3E0901C93CF41
:100A3000F0EF120F42901C89EEF0A3EFF07D509082
:100A40001C6AE0FEA3E07802C333CE33CED8F9FFB0
:100A5000901C5FE0FBA3E0FAA3E02FF9EA3EFA90D6
:100A60000006122A496D7002E5F060187BFF7A1EBD
:100A7000796D901C6AE0FFA3E0901D72CFF0A3EFA8
:100A8000F0122071901C89E0FCA3E0FD901C62E054
:100A9000FBA3E0FAA3E02408F9EA3407FA901C6EFD
:100AA000E025E0FF901C6DE033FEE92FF9EA3EFA05
:090AB000EC8DF0122B06020B0D77
:0E0AB900901C687405F0901C6CE064057019C8
:100AC700123C62120F0B901C89EEF0A3EFF0640149
:090AD7004E7003020B0D020B85A9
:100AE000901C687406F0901C6CE0FFB40603020BC7
:0A0AF00034901C687403F06F702C42
:100AFA00123C62120F0B901C89EEF0A3EFF0640116
:100B0A004E7017901C88E02401FE901C87E0340088
:0C0B1A00901C6AF0A3CEF0020851805F2E
:100B2600901C687409F0901C6CE0FFB40910A3E0F7
:100B3600FDA3E0901C6ACDF0A3EDF0020851901CD5
:100B460068740AF0B5073D901C6BE02402FD901C0A
:100B56006AE03400FC901C86E025E0FF901C85E0EE
:100B660033FE74712FF582741C3EF583ECF0A3ED11
:100B7600F0901C86E004F07006901C85E004F0906E
:100B86001C6D8031901C68740BF0901C6CE0FDB4F9
:100B96000B32901C86E024FFF0901C85E034FFF0B9
:100BA600A3E025E0FF901C85E033FE74712FF582EB
:100BB600741C3EF583E0FFA3E0901C6ACFF0A3EF20
:100BC600F0020851901C68740CF06D6003020D6809
:100BD600901C6BE02402F0901C6AE03400F0E0FE0A
:100BE600A3E07802C333CE33CED8F9FF901C5FE082
:100BF600FBA3E0FAA3E0F98F828E83122A49FD90C7
:100C06001C87E5F0F0A3EDF0E92FF9EA3EFA900033
:100C160002122A49FF901C6CF0901C6974A0F0BF68
:100C2600A031901C62E0FBA3E0FAA3E02408F9EAF5
:100C36003407FA901C88E025E0FF901C87E033FE1D
:100C4600E92FF9EA3EFA122A1EFF901C87E5F0F01A
:100C5600A3EFF0C3901C88E094C8901C87E0940032
:100C660040097BFF7A1E798C122071901C88E02542
:100C7600E0FF901C87E033FE901C65E0FBA3E0FAE2
:100C8600A3E0F98F828E83122A49FF901C89E5F032
:100C9600F0A3EFF0901C6BE024FFF0901C6AE034A8
:100CA600FFF0E0FEA3E07802C333CE33CED8F9FFDF
:100CB600901C5FE0FBA3E0FAA3E0F98F828E83121B
:100CC6002A49FD901C6FE5F0F0A3EDF0E92FF9EA53
:100CD6003EFA900002122A49FF901C6CF0901C69A3
:100CE60074A0F0BFA034901C89E0FCA3E0FD901C2A
:100CF60062E0FBA3E0FAA3E02408F9EA3407FA90DD
:100D06001C70E025E0FF901C6FE033FEE92FF9EA46
:100D16003EFAEC8DF0122B068037901C6974A1F018
:100D2600901C6CE0B4A13B901C89E0FCA3E0FD9014
:100D36001C70E025E0FF901C6FE033FE901C65E020
:100D4600FBA3E0FAA3E0F98F828E83EC8DF0122BE1
:100D560025901C6BE02402F0901C6AE03400F0023F
:020D6600085132
:100D6800901C68740DF0901C6CE0640D6003020E1A
:010D7800F981
:100D7900901C6BE02402F0901C6AE03400F0E0FE65
:100D8900A3E07802C333CE33CED8F9FF901C5FE0DD
:100D9900FBA3E0FAA3E0F98F828E83122A49FD9022
:100DA9001C89E5F0F0A3EDF0E92FF9EA3EFA90008D
:100DB90002122A49FF901C6CF0901C6974A0F0BFC4
:100DC900A031901C62E0FBA3E0FAA3E02408F9EA51
:100DD9003407FA901C8AE025E0FF901C89E033FE75
:100DE900E92FF9EA3EFA122A1EFF901C89E5F0F074
:100DF900A3EFF0901C6BE024FFF0901C6AE034FF35
:100E0900F0E0FEA3E07802C333CE33CED8F9FF90E9
:100E19001C5FE0FBA3E0FAA3E0F98F828E83122A1C
:100E290049FD901C6FE5F0F0A3EDF0E92FF9EA3EDA
:100E3900FA900002122A49FF901C6CF0901C697408
:100E4900A0F0BFA03F901C62E0FBA3E0FAA3E0245E
:100E590008F9EA3407FA901C70E025E0FF901C6F4E
:100E6900E033FEE92FF9EA3EFA122A1EFF901C87A9
:100E7900E5F0F0A3EFF0901C6BE02402F0901C6AFF
:100E8900E03400F0901C6974A1F0901C6CE0B4A1EE
:100E99001D901C6FE0FFA3E0901C87CFF0A3EFF03B
:100EA900901C6BE02402F0901C6AE03400F0C390BF
:100EB9001C88E094C8901C87E0940040097BFF7A65
:100EC9001E798C122071901C89E0FCA3E0FD901C16
:100ED90088E025E0FF901C87E033FE901C65E0FB6D
:100EE900A3E0FAA3E0F98F828E83EC8DF0122B2513
:100EF900901C6BE004F07006901C6AE004F0020894
:010F09005196
:010F0A0022C4
:1036D5007A1C79827BFF74FF901D5DF0A3F07F015A
:1036E500901D59EFF0A3EBF0A3EAF0A3E9F07BFFFF
:1036F5007A1C79A7122071901D59E014B40E004070
:10370500030237B290371775F003A4C58325F0C5BA
:10371500837302374102374902375102375902375D
:1037250061023769023771023779023781023789B9
:103735000237910237990237A10237A97BFF7A1E1A
:1037450079A380667BFF7A1E79B6805E7BFF7A1E41
:1037550079C380567BFF7A1E79D2804E7BFF7A1E15
:1037650079E180467BFF7A1E79F3803E7BFF7A1FE5
:10377500790680367BFF7A1F7918802E7BFF7A1FAA
:10378500792A80267BFF7A1F793C801E7BFF7A1F72
:10379500794F80167BFF7A1F7968800E7BFF7A1F31
:1037A500797380067BFF7A1F7982122071901D5AEA
:1037B500E0FBA3E0FAA3E0F9A3E0FEA3E0F5828E27
:1037C50083122997901D72F07BFF7A1F7992122040
:1037D50071901D5AE0FBA3E0FAA3E0F9901D5EE0AD
:1037E50024FFFD901D5DE034FFFC123A3A901D5D0B
:0637F500E0FEA3E0FF224C
:10347B00F0A3F0901C8BE0F9A3E0FAA3E0901D55AC
:10348B00C9F0A3EAF0A3E9F0A37403F0A3ECF0ED09
:0D349B00A3F0901C8EE0FBA3E0FAA3E0F983
:0B34A800901D52EBF0A3EAF0A3E9F046
:1034B3007BFF7A1F79A2122071901D58E0146015CA
:1034C30014601A14601F146024240470297BFF7A8B
:1034D3001F79AD801E7BFF7A1F79BB80167BFF7A35
:1034E3001F79D4800E7BFF7A1F79E580067BFF7AF4
:1034F3001F79F21220717BFF7A20790112207190DB
:103503001D5AE024FDFF901D59E034FFFED3EF94D4
:1035130000EE64809480400A901D5BEEF0A3EFF010
:103523008007E4901D5BF0A3F0901D52E0FBA3E045
:10353300FAA3E0F99007D0122A49FFAEF0901D5A82
:10354300E02404FD901D59E03400FCC3ED9FEC9E84
:10355300901D5D5007ECF0A3EDF08005EEF0A3EFB6
:10356300F0901D55E0F9A3E0FAA3E0901D62C9F0C5
:10357300A3EAF0A3E9F0901D5BE0FFA3E0901D65D3
:10358300CFF0A3EFF0901D5DE0FFA3E0901D67CFA8
:10359300F0A3EFF0901D52E0FBA3E0FAA3E0F912D1
:0635A30015597E007F01B6
:0135A90022FF
:103D4B002564200048454C4C4F570D0A0025730A3B
:103D5B0000636F64655F6C656E3A2025640A000A28
:103D6B002D2D2D2D2D42415349432052554E2D2D96
:053D7B002D2D2D0A00B2
:1026920062F700007072692022657870725F74655B
:1026A20073743A220A76617220690A69203D2039E0
:1026B2003233300A69203D2032203C2031200A6921
:1026C200203D2069202A2069200A69203D206920B6
:1026D2002B2032202A20282031202B202820332092
:1026E2002B20342029202A2035202B2031202A207B
:1026F20031202D2032202B20282034202D20322062
:1027020029202A2028203130202D20392029202953
:102712000A70726920690A70726920227465737482
:102722005F656E643A220A707269202269665F747C
:102732006573743A220A69662069203E20320A20B3
:102742002020207072692022626967220A656E6405
:102752006966200A69662069203C20320A2020200E
:10276200207072692022736D616C220A2020202061
:1027720069662069200A20202020202020207072F3
:10278200692022696E6E65725F6966220A202020C6
:1027920020656E646966200A2020202070726920FC
:1027A20022696E6E65725F656E646966220A656E85
:1027B200646966200A7072692022746573745F65A9
:1027C2006E643A220A70726920227768696C655FCA
:1027D200746573743A220A7768696C652069203CD3
:1027E2002032200A202020207072692022736D611D
:1027F2006C6C220A202020207768696C6520310ADF
:1028020020202020656E647768200A202020207016
:1028120072692022696E6E65725F656E64776822E6
:102822000A656E647768200A7768696C652069209A
:102832003E2032200A202020207072692069200A5E
:102842002020202069203D2069202D2031200A658A
:102852006E647768200A70726920227072696D2234
:102862000A7661722062200A76617220646976209B
:102872000A76617220666C6167200A62203D20320E
:10288200200A646976203D2032200A666C61672046
:102892003D2030200A7768696C652062203C203137
:1028A20030303030200A20202020666C6167203DC5
:1028B2002031200A20202020646976203D20322009
:1028C2000A202020207768696C6520646976203CA4
:1028D2002062202F2032202B2031200A202020208D
:1028E20020202020696620282062202F206469761B
:1028F2002029202A20646976203D3D2062200A207A
:1029020020202020202020666C6167203D2030207E
:102912000A2020202020202020656E646966200A7B
:102922002020202020202020646976203D20646918
:1029320076202B20310A20202020656E64776820C3
:102942000A20202020696620666C6167200A202008
:1029520020207072692062200A20202020656E6487
:102962006966200A2020202062203D2062202B2040
:1029720031200A656E647768200A707269202270BD
:1029820072696D5F656E64220A0000411C58004244
:042992000C5B0000DA
:103D800053877F759850438E40538EFE53890F435F
:0F3D90008920758BD9758DD9C2ABD28ED299226D
:083DC8008F993099FDC2992288
:10312300901C59E4F0A37402F0A3E4F0A37402F03A
:10313300E4A3F0A3F0901457F0901C58F0900C5BAC
:10314300F0A3F0123D80C3901C5AE09464901C5984
:10315300E0648094804003023208901C5DE4F0A395
:1031630004F0901C5BE4F0A37402F0901C59E0FEA1
:10317300A3E0FF7C007D021229E8EF2401FFE43E77
:10318300FEC3901C5CE09FEE6480F8901C5BE064DF
:103193008098503EE0FAA3E0FB901C59E0FEA3E0C8
:1031A300FFAD03AC021229E8AD03AC021229D6909D
:1031B3001C59E0B5060CA3E0B50707E4901C5DF0CD
:1031C300A3F0901C5CE004F070A1901C5BE004F0A1
:1031D3008099901C5DE07002A3E060187BFF7A3D4C
:1031E300794B901C59E0FFA3E0901D72CFF0A3EF41
:1031F300F0122071901C5AE004F07006901C59E004
:1032030004F00231497BFF7A3D794F122071E4903B
:103213001C58F0901D7204F0A37400F0A37400F026
:103223007BFF7A3D79581220717B017A0079001275
:103233003D9F901D72EEF0A3EFF07BFF7A3D795C2A
:10324300122071901C627401F0A37402F0A374F74E
:10325300F0A37401F0A3740CF0A3745DF07B017A06
:103263000079001232D9901C627401F0A37402F049
:10327300A374F7F07B017A007900120003901D62BA
:103283007401F0A3740CF0A3745DF0E4A3F0A3F055
:10329300900AC7E0FFA3E0901D67CFF0A3EFF07B98
:1032A300017A0279F71215597BFF7A3D796A122068
:1032B30071901C627401F0A3740CF0A3745DF0A30D
:1032C3007401F0A3740AF0A374CBF07B017A027942
:0632D300F712083980FE2D
:103AD400023123E493A3F8E493A34003F68001F2B4
:103AE40008DFF48029E493A3F85407240CC8C333F3
:103AF400C4540F4420C8834004F456800146F6DFC2
:103B0400E4800B0102040810204080902692E47E99
:103B1400019360BCA3FF543F30E509541FFEE493B6
:103B2400A360010ECF54C025E060A840B8E493A37D
:103B3400FAE493A3F8E493A3C8C582C8CAC583CAA8
:103B4400F0A3C8C582C8CAC583CADFE9DEE780BE60
:012996000040
:10299700BB010CE58229F582E5833AF583E02250F5
:1029A70006E92582F8E622BBFE06E92582F8E2223F
:0D29B700E58229F582E5833AF583E4932259
:1029C400BB010689828A83F0225002F722BBFE01F2
:0229D400F322EC
:1029D600EF8DF0A4A8F0CF8CF0A428CE8DF0A42E15
:0229E600FE22CF
:1029E800C2D5EC30E709B2D5E4C39DFDE49CFCEE0A
:1029F80030E715B2D5E4C39FFFE49EFE122BDCC37B
:102A0800E49DFDE49CFC8003122BDC30D507C3E475
:062A18009FFFE49EFE2278
:102A1E00BB010A89828A83E0F5F0A3E02250068783
:102A2E00F009E71922BBFE07E3F5F009E319228945
:0B2A3E00828A83E493F5F07401932278
:102A4900BB0110E58229F582E5833AF583E0F5F0CB
:102A5900A3E0225009E92582F886F008E622BBFEA8
:102A69000AE92582F8E2F5F008E222E5832AF583EE
:082A7900E993F5F0A3E99322B3
:102A8100BB010789828A83022C31500B09C5F027CB
:102A9100F7C5F01937F722BBFE0D09F8E325F0F36E
:102AA100C5F019E338F322F889828A8374019325EA
:082AB100F0C5F0F8E4933822AF
:102AB900BB010DC58229C582C5833AC583022C3164
:102AC9005011C58229F808E5F026F618F5F0E582D7
:102AD90036F622BBFE11C58229F808E225F0F5F089
:102AE900F218E23582F222F8E58229F582E5832A95
:0D2AF900F58374019325F0F5F0E493382285
:102B0600BB010A89828A83F0E5F0A3F0225006F71A
:0F2B160009A7F01922BBFE06F3E5F009F3192217
:102B2500F8BB0111E58229F582E5833AF583E8F0E2
:102B3500E5F0A3F0225009E92582C8F608A6F0229F
:0D2B4500BBFE09E92582C8F2E5F008F22286
:102B5200E88FF0A4CC8BF0A42CFCE98EF0A42CFC22
:102B62008AF0EDA42CFCEA8EF0A4CDA8F08BF0A4A0
:102B72002DCC3825F0FDE98FF0A42CCD35F0FCEBFF
:102B82008EF0A4FEA9F0EB8FF0A4CFC5F02ECD39C4
:0F2B9200FEE43CFCEAA42DCE35F0FDE43CFC2231
:102BA100EB9FF5F0EA9E42F0E99D42F0EC6480C8AB
:062BB10064809845F0224B
:0C2BB700ECF0A3EDF0A3EEF0A3EFF02291
:10200600E5082472F582E4341DF583E00508229084
:102016001D6F300703901D72E475F001122C470204
:102026002BC32000E97F2ED2008018EF540F249096
:10203600D43440D4FF30040BEF24BFB41A0050034D
:102046002461FFE50960021509050CE50C7002051F
:102056000B30070E901D6FE475F001122C47EF024E
:1020660029C4023DC87403D2078003E4C207F508F9
:10207600901D6F122C5EE4F509F50BF50CE5096071
:10208600077F2012204980F5750AFFC201C200C2EF
:1020960002C203C205C206C208122015FF700D3027
:1020A60007057F0012205AAF0CAE0B22B4255FC283
:1020B600D5C204122015FF24D0B40A00501A75F0B8
:1020C6000A780930D50508B6FF0106C6A426F6200B
:1020D600D5047002D20380D924CFB41A00EF50047D
:1020E600C2E5D20402225BD20180C6D20080C0D2F1
:1020F6000280BCD2D580BAD20580B47F2012204996
:102106002002077401B5090040F1122006FF1220D3
:1021160049022083D208D2068095122006FB12209F
:1021260006FA122006F94A4B7006792C7A237BFFB1
:1021360020022EE509602A7E008E82758300122910
:102146009760060EEE650A70F0C2D5EBC0E0EAC0F5
:10215600E0E9C0E0EE1222A2D0E0F9D0E0FAD0E049
:10216600FB122BC3FF60AAEBC0E0EAC0E0E9C0E0C7
:10217600122049D0E02401F9D0E03400FAD0E0FB87
:10218600E50A0460DCD50AD980877BFF7A22799E2E
:10219600D202809C791080027908C206C2088008A3
:1021A600D2D5790A8004790AC2D5E50A047002F507
:1021B6000AE4FAFDFEFF122006FC7B08200113123A
:1021C6002006FD7B1030000A122006FE122006FFB4
:1021D6007B20EC3382D592D55013C3E43000069FA2
:1021E600FFE49EFEE42001039DFDE49CFCE4CBF8A5
:1021F600C201EC700CCFCECDCCE824F8F870F38099
:1022060017C3EF33FFEE33FEED33FDEC33FCEB3358
:10221600FB994002FB0FD8E9EB300105F8D0E0C48A
:1022260048B201C0E00AEC4D4E4F78207B0070C2E8
:10223600EAB50A0040BCC0E01222A4D0F0D0E020EB
:102246000104C4C0E0C4B201C0F0122032D0F0D5FF
:10225600F0EB022083122C67212053219A5820F19B
:102266004C20ED42219E4F21A64421A6492106433A
:0822760021AC55219046219096
:10227E0045219047234C5020F52D20F92E211C2B63
:10228E0020FD23211A2023352A20B54800002114D1
:10229E003F3F3F00790AA2D5200314300509B9103B
:1022AE00020404B9080104A2D5200602500104203C
:1022BE0002689202B509005034C0E07F2030031945
:1022CE007F30A20272067205500F1222FBC202C2AA
:1022DE0006C205C2087F30800F300503E9C0E01248
:1022EE002049300503D0E0F9D0E0B509CC30051710
:1022FE007F30B9100C1220497F583004077F788048
:10230E0003B908031220493002057F2D0220497FB0
:10231E00202008F87F2B2006F322920280CF286E11
:10232E00756C6C2900D2011220063001F8C20178BA
:10233E000930D50108F60220B52D50434958122018
:10234E00062403B405004001E49023479312203A7B
:0D235E00743A12203AD20375090402219A44
:103D9F00E4FFFE122BC3600C0FEF70010E09E970E8
:053DAF00F20A80EF2282
:102BC300BB010689828A83E0225002E722BBFE0210
:092BD300E32289828A83E4932243
:102BDC00BC000BBE0029EF8DF084FFADF022E4CCDD
:102BEC00F875F008EF2FFFEE33FEEC33FCEE9DECA6
:102BFC00984005FCEE9DFE0FD5F0E9E4CEFD22EDEC
:102C0C00F8F5F0EE8420D21CFEADF075F008EF2F35
:102C1C00FFED33FD4007985006D5F0F222C398FD26
:052C2C000FD5F0EA22C3
:102C3100C5F0F8A3E028F0C5F0F8E582158270022E
:062C41001583E038F022CB
:102C4700F8E0FBA3A3E0F925F0F0E5821582700216
:072C57001583E0FA38F022BA
:092C5E00EBF0A3EAF0A3E9F02277
:102C6700D083D082F8E4937012740193700DA3A3FC
:102C770093F8740193F5828883E473740293686010
:062C8700EFA3A3A380DF10
:00000001FF
